{
    "_format": "hh-sol-artifact-1",
    "contractName": "CrowdfundingFactory",
    "sourceName": "blockchain/contracts/CrowdfundingFactory.sol",
    "abi": [
        {
            "inputs": [
                {
                    "internalType": "address",
                    "name": "_kreativeTokenAddress",
                    "type": "address"
                }
            ],
            "stateMutability": "nonpayable",
            "type": "constructor"
        },
        {
            "inputs": [
                {
                    "internalType": "address",
                    "name": "owner",
                    "type": "address"
                }
            ],
            "name": "OwnableInvalidOwner",
            "type": "error"
        },
        {
            "inputs": [
                {
                    "internalType": "address",
                    "name": "account",
                    "type": "address"
                }
            ],
            "name": "OwnableUnauthorizedAccount",
            "type": "error"
        },
        {
            "anonymous": false,
            "inputs": [
                {
                    "indexed": true,
                    "internalType": "uint256",
                    "name": "campaignId",
                    "type": "uint256"
                },
                {
                    "indexed": false,
                    "internalType": "string",
                    "name": "name",
                    "type": "string"
                },
                {
                    "indexed": false,
                    "internalType": "address",
                    "name": "creator",
                    "type": "address"
                },
                {
                    "indexed": false,
                    "internalType": "uint256",
                    "name": "goal",
                    "type": "uint256"
                },
                {
                    "indexed": false,
                    "internalType": "uint256",
                    "name": "deadline",
                    "type": "uint256"
                }
            ],
            "name": "CampaignCreated",
            "type": "event"
        },
        {
            "anonymous": false,
            "inputs": [
                {
                    "indexed": true,
                    "internalType": "uint256",
                    "name": "campaignId",
                    "type": "uint256"
                }
            ],
            "name": "CampaignFailed",
            "type": "event"
        },
        {
            "anonymous": false,
            "inputs": [
                {
                    "indexed": true,
                    "internalType": "uint256",
                    "name": "campaignId",
                    "type": "uint256"
                }
            ],
            "name": "CampaignSuccessful",
            "type": "event"
        },
        {
            "anonymous": false,
            "inputs": [
                {
                    "indexed": true,
                    "internalType": "uint256",
                    "name": "campaignId",
                    "type": "uint256"
                },
                {
                    "indexed": false,
                    "internalType": "address",
                    "name": "contributor",
                    "type": "address"
                },
                {
                    "indexed": false,
                    "internalType": "uint256",
                    "name": "amount",
                    "type": "uint256"
                }
            ],
            "name": "ContributionMade",
            "type": "event"
        },
        {
            "anonymous": false,
            "inputs": [
                {
                    "indexed": true,
                    "internalType": "address",
                    "name": "previousOwner",
                    "type": "address"
                },
                {
                    "indexed": true,
                    "internalType": "address",
                    "name": "newOwner",
                    "type": "address"
                }
            ],
            "name": "OwnershipTransferred",
            "type": "event"
        },
        {
            "inputs": [],
            "name": "campaignCount",
            "outputs": [
                {
                    "internalType": "uint256",
                    "name": "",
                    "type": "uint256"
                }
            ],
            "stateMutability": "view",
            "type": "function"
        },
        {
            "inputs": [
                {
                    "internalType": "string",
                    "name": "",
                    "type": "string"
                }
            ],
            "name": "campaignIdsByName",
            "outputs": [
                {
                    "internalType": "uint256",
                    "name": "",
                    "type": "uint256"
                }
            ],
            "stateMutability": "view",
            "type": "function"
        },
        {
            "inputs": [
                {
                    "internalType": "uint256",
                    "name": "",
                    "type": "uint256"
                }
            ],
            "name": "campaigns",
            "outputs": [
                {
                    "internalType": "address payable",
                    "name": "creator",
                    "type": "address"
                },
                {
                    "internalType": "string",
                    "name": "name",
                    "type": "string"
                },
                {
                    "internalType": "uint256",
                    "name": "goal",
                    "type": "uint256"
                },
                {
                    "internalType": "uint256",
                    "name": "raised",
                    "type": "uint256"
                },
                {
                    "internalType": "uint256",
                    "name": "deadline",
                    "type": "uint256"
                },
                {
                    "internalType": "bool",
                    "name": "active",
                    "type": "bool"
                }
            ],
            "stateMutability": "view",
            "type": "function"
        },
        {
            "inputs": [
                {
                    "internalType": "string",
                    "name": "_name",
                    "type": "string"
                }
            ],
            "name": "checkCampaignStatus",
            "outputs": [],
            "stateMutability": "nonpayable",
            "type": "function"
        },
        {
            "inputs": [
                {
                    "internalType": "string",
                    "name": "_name",
                    "type": "string"
                },
                {
                    "internalType": "uint256",
                    "name": "_amount",
                    "type": "uint256"
                }
            ],
            "name": "contribute",
            "outputs": [],
            "stateMutability": "nonpayable",
            "type": "function"
        },
        {
            "inputs": [
                {
                    "internalType": "string",
                    "name": "_name",
                    "type": "string"
                },
                {
                    "internalType": "uint256",
                    "name": "_goal",
                    "type": "uint256"
                },
                {
                    "internalType": "uint256",
                    "name": "_days",
                    "type": "uint256"
                },
                {
                    "internalType": "uint256",
                    "name": "_hours",
                    "type": "uint256"
                },
                {
                    "internalType": "uint256",
                    "name": "_minutes",
                    "type": "uint256"
                }
            ],
            "name": "createCampaign",
            "outputs": [],
            "stateMutability": "nonpayable",
            "type": "function"
        },
        {
            "inputs": [],
            "name": "feePercentage",
            "outputs": [
                {
                    "internalType": "uint256",
                    "name": "",
                    "type": "uint256"
                }
            ],
            "stateMutability": "view",
            "type": "function"
        },
        {
            "inputs": [
                {
                    "internalType": "string",
                    "name": "_name",
                    "type": "string"
                }
            ],
            "name": "getCampaignIdByName",
            "outputs": [
                {
                    "internalType": "uint256",
                    "name": "",
                    "type": "uint256"
                }
            ],
            "stateMutability": "view",
            "type": "function"
        },
        {
            "inputs": [],
            "name": "kreativeToken",
            "outputs": [
                {
                    "internalType": "contract IERC20",
                    "name": "",
                    "type": "address"
                }
            ],
            "stateMutability": "view",
            "type": "function"
        },
        {
            "inputs": [],
            "name": "owner",
            "outputs": [
                {
                    "internalType": "address",
                    "name": "",
                    "type": "address"
                }
            ],
            "stateMutability": "view",
            "type": "function"
        },
        {
            "inputs": [],
            "name": "renounceOwnership",
            "outputs": [],
            "stateMutability": "nonpayable",
            "type": "function"
        },
        {
            "inputs": [],
            "name": "totalFees",
            "outputs": [
                {
                    "internalType": "uint256",
                    "name": "",
                    "type": "uint256"
                }
            ],
            "stateMutability": "view",
            "type": "function"
        },
        {
            "inputs": [
                {
                    "internalType": "address",
                    "name": "newOwner",
                    "type": "address"
                }
            ],
            "name": "transferOwnership",
            "outputs": [],
            "stateMutability": "nonpayable",
            "type": "function"
        },
        {
            "inputs": [],
            "name": "withdrawFees",
            "outputs": [],
            "stateMutability": "nonpayable",
            "type": "function"
        }
    ],
    "bytecode": "0x608060405260016005553480156200001657600080fd5b5060405162001dc038038062001dc083398181016040528101906200003c91906200023a565b33600073ffffffffffffffffffffffffffffffffffffffff168173ffffffffffffffffffffffffffffffffffffffff1603620000b25760006040517f1e4fbdf7000000000000000000000000000000000000000000000000000000008152600401620000a991906200027d565b60405180910390fd5b620000c3816200010c60201b60201c565b5080600460006101000a81548173ffffffffffffffffffffffffffffffffffffffff021916908373ffffffffffffffffffffffffffffffffffffffff160217905550506200029a565b60008060009054906101000a900473ffffffffffffffffffffffffffffffffffffffff169050816000806101000a81548173ffffffffffffffffffffffffffffffffffffffff021916908373ffffffffffffffffffffffffffffffffffffffff1602179055508173ffffffffffffffffffffffffffffffffffffffff168173ffffffffffffffffffffffffffffffffffffffff167f8be0079c531659141344cd1fd0a4f28419497f9722a3daafe3b4186f6b6457e060405160405180910390a35050565b600080fd5b600073ffffffffffffffffffffffffffffffffffffffff82169050919050565b60006200020282620001d5565b9050919050565b6200021481620001f5565b81146200022057600080fd5b50565b600081519050620002348162000209565b92915050565b600060208284031215620002535762000252620001d0565b5b6000620002638482850162000223565b91505092915050565b6200027781620001f5565b82525050565b60006020820190506200029460008301846200026c565b92915050565b611b1680620002aa6000396000f3fe608060405234801561001057600080fd5b50600436106100ea5760003560e01c80638da5cb5b1161008c578063a2f78e7811610066578063a2f78e781461022c578063ae817f9a1461024a578063c79de09b14610266578063f2fde38b14610282576100ea565b80638da5cb5b146101c057806392691244146101de578063a001ecdd1461020e576100ea565b80634981f557116100c85780634981f5571461014c5780636770b75d1461017c578063715018a6146101985780637274e30d146101a2576100ea565b806313114a9d146100ef578063141961bc1461010d578063476343ee14610142575b600080fd5b6100f761029e565b6040516101049190610d71565b60405180910390f35b61012760048036038101906101229190610dcc565b6102a4565b60405161013996959493929190610ee5565b60405180910390f35b61014a610395565b005b61016660048036038101906101619190611082565b610451565b6040516101739190610d71565b60405180910390f35b61019660048036038101906101919190611082565b61047f565b005b6101a0610560565b005b6101aa610574565b6040516101b79190610d71565b60405180910390f35b6101c861057a565b6040516101d591906110ec565b60405180910390f35b6101f860048036038101906101f39190611082565b6105a3565b6040516102059190610d71565b60405180910390f35b6102166105cb565b6040516102239190610d71565b60405180910390f35b6102346105d1565b6040516102419190611166565b60405180910390f35b610264600480360381019061025f9190611181565b6105f7565b005b610280600480360381019061027b91906111dd565b610970565b005b61029c600480360381019061029791906112a0565b610b7f565b005b60065481565b60016020528060005260406000206000915090508060000160009054906101000a900473ffffffffffffffffffffffffffffffffffffffff16908060010180546102ed906112fc565b80601f0160208091040260200160405190810160405280929190818152602001828054610319906112fc565b80156103665780601f1061033b57610100808354040283529160200191610366565b820191906000526020600020905b81548152906001019060200180831161034957829003601f168201915b5050505050908060020154908060030154908060040154908060050160009054906101000a900460ff16905086565b61039d610c05565b600460009054906101000a900473ffffffffffffffffffffffffffffffffffffffff1673ffffffffffffffffffffffffffffffffffffffff1663a9059cbb6103e361057a565b6006546040518363ffffffff1660e01b815260040161040392919061132d565b6020604051808303816000875af1158015610422573d6000803e3d6000fd5b505050506040513d601f19601f820116820180604052508101906104469190611382565b506000600681905550565b6002818051602081018201805184825260208301602085012081835280955050505050506000915090505481565b600060028260405161049191906113eb565b908152602001604051809103902054905060006001600083815260200190815260200160002090508060040154421015610500576040517f08c379a00000000000000000000000000000000000000000000000000000000081526004016104f79061144e565b60405180910390fd5b80600201548160030154101561055b5760008160050160006101000a81548160ff021916908315150217905550817f7b1418b19a03b176f641639ee79855da661fa88a08377ecd32ad6d38152b953660405160405180910390a25b505050565b610568610c05565b6105726000610c8c565b565b60035481565b60008060009054906101000a900473ffffffffffffffffffffffffffffffffffffffff16905090565b60006002826040516105b591906113eb565b9081526020016040518091039020549050919050565b60055481565b600460009054906101000a900473ffffffffffffffffffffffffffffffffffffffff1681565b600060028360405161060991906113eb565b9081526020016040518091039020549050600060016000838152602001908152602001600020905080600401544210610677576040517f08c379a000000000000000000000000000000000000000000000000000000000815260040161066e906114ba565b60405180910390fd5b8060050160009054906101000a900460ff166106c8576040517f08c379a00000000000000000000000000000000000000000000000000000000081526004016106bf90611526565b60405180910390fd5b60006064600554856106da9190611575565b6106e491906115e6565b9050600081856106f49190611617565b9050600460009054906101000a900473ffffffffffffffffffffffffffffffffffffffff1673ffffffffffffffffffffffffffffffffffffffff166323b872dd3330886040518463ffffffff1660e01b81526004016107559392919061164b565b6020604051808303816000875af1158015610774573d6000803e3d6000fd5b505050506040513d601f19601f820116820180604052508101906107989190611382565b6107d7576040517f08c379a00000000000000000000000000000000000000000000000000000000081526004016107ce906116ce565b60405180910390fd5b808360030160008282546107eb91906116ee565b92505081905550816006600082825461080491906116ee565b92505081905550837f0a4a91237423e0a1766a761c7cb029311d8b95d6b1b81db1b949a70c98b4e08e338760405161083d92919061132d565b60405180910390a282600201548360030154106109685760008360050160006101000a81548160ff021916908315150217905550600460009054906101000a900473ffffffffffffffffffffffffffffffffffffffff1673ffffffffffffffffffffffffffffffffffffffff1663a9059cbb8460000160009054906101000a900473ffffffffffffffffffffffffffffffffffffffff1685600301546040518363ffffffff1660e01b81526004016108f6929190611743565b6020604051808303816000875af1158015610915573d6000803e3d6000fd5b505050506040513d601f19601f820116820180604052508101906109399190611382565b50837ff2460a88147f5180b9df3609a3c66dda39614029da9fdf0b90564b7154374d2f60405160405180910390a25b505050505050565b600084116109b3576040517f08c379a00000000000000000000000000000000000000000000000000000000081526004016109aa906117b8565b60405180910390fd5b6000603c826109c29190611575565b610e10846109d09190611575565b62015180866109df9190611575565b426109ea91906116ee565b6109f491906116ee565b6109fe91906116ee565b90506040518060c001604052803373ffffffffffffffffffffffffffffffffffffffff168152602001878152602001868152602001600081526020018281526020016001151581525060016000600354815260200190815260200160002060008201518160000160006101000a81548173ffffffffffffffffffffffffffffffffffffffff021916908373ffffffffffffffffffffffffffffffffffffffff1602179055506020820151816001019081610ab8919061197a565b5060408201518160020155606082015181600301556080820151816004015560a08201518160050160006101000a81548160ff021916908315150217905550905050600354600287604051610b0d91906113eb565b9081526020016040518091039020819055506003547f2e4be7f0a0275b06869815699165e220352ac35bdea8c927565a098fa77dffb687338885604051610b579493929190611a4c565b60405180910390a260036000815480929190610b7290611a98565b9190505550505050505050565b610b87610c05565b600073ffffffffffffffffffffffffffffffffffffffff168173ffffffffffffffffffffffffffffffffffffffff1603610bf95760006040517f1e4fbdf7000000000000000000000000000000000000000000000000000000008152600401610bf091906110ec565b60405180910390fd5b610c0281610c8c565b50565b610c0d610d50565b73ffffffffffffffffffffffffffffffffffffffff16610c2b61057a565b73ffffffffffffffffffffffffffffffffffffffff1614610c8a57610c4e610d50565b6040517f118cdaa7000000000000000000000000000000000000000000000000000000008152600401610c8191906110ec565b60405180910390fd5b565b60008060009054906101000a900473ffffffffffffffffffffffffffffffffffffffff169050816000806101000a81548173ffffffffffffffffffffffffffffffffffffffff021916908373ffffffffffffffffffffffffffffffffffffffff1602179055508173ffffffffffffffffffffffffffffffffffffffff168173ffffffffffffffffffffffffffffffffffffffff167f8be0079c531659141344cd1fd0a4f28419497f9722a3daafe3b4186f6b6457e060405160405180910390a35050565b600033905090565b6000819050919050565b610d6b81610d58565b82525050565b6000602082019050610d866000830184610d62565b92915050565b6000604051905090565b600080fd5b600080fd5b610da981610d58565b8114610db457600080fd5b50565b600081359050610dc681610da0565b92915050565b600060208284031215610de257610de1610d96565b5b6000610df084828501610db7565b91505092915050565b600073ffffffffffffffffffffffffffffffffffffffff82169050919050565b6000610e2482610df9565b9050919050565b610e3481610e19565b82525050565b600081519050919050565b600082825260208201905092915050565b60005b83811015610e74578082015181840152602081019050610e59565b60008484015250505050565b6000601f19601f8301169050919050565b6000610e9c82610e3a565b610ea68185610e45565b9350610eb6818560208601610e56565b610ebf81610e80565b840191505092915050565b60008115159050919050565b610edf81610eca565b82525050565b600060c082019050610efa6000830189610e2b565b8181036020830152610f0c8188610e91565b9050610f1b6040830187610d62565b610f286060830186610d62565b610f356080830185610d62565b610f4260a0830184610ed6565b979650505050505050565b600080fd5b600080fd5b7f4e487b7100000000000000000000000000000000000000000000000000000000600052604160045260246000fd5b610f8f82610e80565b810181811067ffffffffffffffff82111715610fae57610fad610f57565b5b80604052505050565b6000610fc1610d8c565b9050610fcd8282610f86565b919050565b600067ffffffffffffffff821115610fed57610fec610f57565b5b610ff682610e80565b9050602081019050919050565b82818337600083830152505050565b600061102561102084610fd2565b610fb7565b90508281526020810184848401111561104157611040610f52565b5b61104c848285611003565b509392505050565b600082601f83011261106957611068610f4d565b5b8135611079848260208601611012565b91505092915050565b60006020828403121561109857611097610d96565b5b600082013567ffffffffffffffff8111156110b6576110b5610d9b565b5b6110c284828501611054565b91505092915050565b60006110d682610df9565b9050919050565b6110e6816110cb565b82525050565b600060208201905061110160008301846110dd565b92915050565b6000819050919050565b600061112c61112761112284610df9565b611107565b610df9565b9050919050565b600061113e82611111565b9050919050565b600061115082611133565b9050919050565b61116081611145565b82525050565b600060208201905061117b6000830184611157565b92915050565b6000806040838503121561119857611197610d96565b5b600083013567ffffffffffffffff8111156111b6576111b5610d9b565b5b6111c285828601611054565b92505060206111d385828601610db7565b9150509250929050565b600080600080600060a086880312156111f9576111f8610d96565b5b600086013567ffffffffffffffff81111561121757611216610d9b565b5b61122388828901611054565b955050602061123488828901610db7565b945050604061124588828901610db7565b935050606061125688828901610db7565b925050608061126788828901610db7565b9150509295509295909350565b61127d816110cb565b811461128857600080fd5b50565b60008135905061129a81611274565b92915050565b6000602082840312156112b6576112b5610d96565b5b60006112c48482850161128b565b91505092915050565b7f4e487b7100000000000000000000000000000000000000000000000000000000600052602260045260246000fd5b6000600282049050600182168061131457607f821691505b602082108103611327576113266112cd565b5b50919050565b600060408201905061134260008301856110dd565b61134f6020830184610d62565b9392505050565b61135f81610eca565b811461136a57600080fd5b50565b60008151905061137c81611356565b92915050565b60006020828403121561139857611397610d96565b5b60006113a68482850161136d565b91505092915050565b600081905092915050565b60006113c582610e3a565b6113cf81856113af565b93506113df818560208601610e56565b80840191505092915050565b60006113f782846113ba565b915081905092915050565b7f43616d706169676e206973207374696c6c206f6e676f696e6700000000000000600082015250565b6000611438601983610e45565b915061144382611402565b602082019050919050565b600060208201905081810360008301526114678161142b565b9050919050565b7f43616d706169676e2068617320656e6465640000000000000000000000000000600082015250565b60006114a4601283610e45565b91506114af8261146e565b602082019050919050565b600060208201905081810360008301526114d381611497565b9050919050565b7f43616d706169676e206973206e6f206c6f6e6765722061637469766500000000600082015250565b6000611510601c83610e45565b915061151b826114da565b602082019050919050565b6000602082019050818103600083015261153f81611503565b9050919050565b7f4e487b7100000000000000000000000000000000000000000000000000000000600052601160045260246000fd5b600061158082610d58565b915061158b83610d58565b925082820261159981610d58565b915082820484148315176115b0576115af611546565b5b5092915050565b7f4e487b7100000000000000000000000000000000000000000000000000000000600052601260045260246000fd5b60006115f182610d58565b91506115fc83610d58565b92508261160c5761160b6115b7565b5b828204905092915050565b600061162282610d58565b915061162d83610d58565b925082820390508181111561164557611644611546565b5b92915050565b600060608201905061166060008301866110dd565b61166d60208301856110dd565b61167a6040830184610d62565b949350505050565b7f5472616e73666572206661696c65640000000000000000000000000000000000600082015250565b60006116b8600f83610e45565b91506116c382611682565b602082019050919050565b600060208201905081810360008301526116e7816116ab565b9050919050565b60006116f982610d58565b915061170483610d58565b925082820190508082111561171c5761171b611546565b5b92915050565b600061172d82611133565b9050919050565b61173d81611722565b82525050565b60006040820190506117586000830185611734565b6117656020830184610d62565b9392505050565b7f476f616c206d7573742062652067726561746572207468616e207a65726f0000600082015250565b60006117a2601e83610e45565b91506117ad8261176c565b602082019050919050565b600060208201905081810360008301526117d181611795565b9050919050565b60008190508160005260206000209050919050565b60006020601f8301049050919050565b600082821b905092915050565b60006008830261183a7fffffffffffffffffffffffffffffffffffffffffffffffffffffffffffffffff826117fd565b61184486836117fd565b95508019841693508086168417925050509392505050565b600061187761187261186d84610d58565b611107565b610d58565b9050919050565b6000819050919050565b6118918361185c565b6118a561189d8261187e565b84845461180a565b825550505050565b600090565b6118ba6118ad565b6118c5818484611888565b505050565b5b818110156118e9576118de6000826118b2565b6001810190506118cb565b5050565b601f82111561192e576118ff816117d8565b611908846117ed565b81016020851015611917578190505b61192b611923856117ed565b8301826118ca565b50505b505050565b600082821c905092915050565b600061195160001984600802611933565b1980831691505092915050565b600061196a8383611940565b9150826002028217905092915050565b61198382610e3a565b67ffffffffffffffff81111561199c5761199b610f57565b5b6119a682546112fc565b6119b18282856118ed565b600060209050601f8311600181146119e457600084156119d2578287015190505b6119dc858261195e565b865550611a44565b601f1984166119f2866117d8565b60005b82811015611a1a578489015182556001820191506020850194506020810190506119f5565b86831015611a375784890151611a33601f891682611940565b8355505b6001600288020188555050505b505050505050565b60006080820190508181036000830152611a668187610e91565b9050611a7560208301866110dd565b611a826040830185610d62565b611a8f6060830184610d62565b95945050505050565b6000611aa382610d58565b91507fffffffffffffffffffffffffffffffffffffffffffffffffffffffffffffffff8203611ad557611ad4611546565b5b60018201905091905056fea2646970667358221220167498854b3022ff16bcb49225723583c76e176ad1ee4c541de47ed23dac4f9e64736f6c63430008180033",
    "linkReferences": {},
    "deployedLinkReferences": {}
}