{
    "_format": "hh-sol-artifact-1",
    "contractName": "CrowdfundingCampaign",
    "sourceName": "blockchain/contracts/CrowdfundingCampaign.sol",
    "abi": [
        {
            "inputs": [
                {
                    "internalType": "uint256",
                    "name": "_goalAmount",
                    "type": "uint256"
                },
                {
                    "internalType": "uint256",
                    "name": "_duration",
                    "type": "uint256"
                }
            ],
            "stateMutability": "nonpayable",
            "type": "constructor"
        },
        {
            "inputs": [],
            "name": "campaignOwner",
            "outputs": [
                {
                    "internalType": "address",
                    "name": "",
                    "type": "address"
                }
            ],
            "stateMutability": "view",
            "type": "function"
        },
        {
            "inputs": [],
            "name": "checkGoalReached",
            "outputs": [
                {
                    "internalType": "bool",
                    "name": "",
                    "type": "bool"
                }
            ],
            "stateMutability": "view",
            "type": "function"
        },
        {
            "inputs": [],
            "name": "contribute",
            "outputs": [],
            "stateMutability": "payable",
            "type": "function"
        },
        {
            "inputs": [
                {
                    "internalType": "address",
                    "name": "",
                    "type": "address"
                }
            ],
            "name": "contributions",
            "outputs": [
                {
                    "internalType": "uint256",
                    "name": "",
                    "type": "uint256"
                }
            ],
            "stateMutability": "view",
            "type": "function"
        },
        {
            "inputs": [],
            "name": "deadline",
            "outputs": [
                {
                    "internalType": "uint256",
                    "name": "",
                    "type": "uint256"
                }
            ],
            "stateMutability": "view",
            "type": "function"
        },
        {
            "inputs": [],
            "name": "goalAmount",
            "outputs": [
                {
                    "internalType": "uint256",
                    "name": "",
                    "type": "uint256"
                }
            ],
            "stateMutability": "view",
            "type": "function"
        },
        {
            "inputs": [],
            "name": "refund",
            "outputs": [],
            "stateMutability": "nonpayable",
            "type": "function"
        },
        {
            "inputs": [],
            "name": "totalContributed",
            "outputs": [
                {
                    "internalType": "uint256",
                    "name": "",
                    "type": "uint256"
                }
            ],
            "stateMutability": "view",
            "type": "function"
        },
        {
            "inputs": [],
            "name": "withdrawFunds",
            "outputs": [],
            "stateMutability": "nonpayable",
            "type": "function"
        }
    ],
    "bytecode": "0x60806040523480156200001157600080fd5b5060405162000c7238038062000c728339818101604052810190620000379190620000da565b336000806101000a81548173ffffffffffffffffffffffffffffffffffffffff021916908373ffffffffffffffffffffffffffffffffffffffff1602179055508160018190555080426200008c919062000150565b60038190555050506200018b565b600080fd5b6000819050919050565b620000b4816200009f565b8114620000c057600080fd5b50565b600081519050620000d481620000a9565b92915050565b60008060408385031215620000f457620000f36200009a565b5b60006200010485828601620000c3565b92505060206200011785828601620000c3565b9150509250929050565b7f4e487b7100000000000000000000000000000000000000000000000000000000600052601160045260246000fd5b60006200015d826200009f565b91506200016a836200009f565b925082820190508082111562000185576200018462000121565b5b92915050565b610ad7806200019b6000396000f3fe6080604052600436106100865760003560e01c806329dcb0cf1161005957806329dcb0cf1461012357806342e94c901461014e578063590e1ae31461018b578063b17fac22146101a2578063d7bb99ba146101cd57610086565b806301cb3b201461008b578063023f4147146100b657806324600fc3146100e15780632636b945146100f8575b600080fd5b34801561009757600080fd5b506100a06101d7565b6040516100ad919061062a565b60405180910390f35b3480156100c257600080fd5b506100cb6101e6565b6040516100d8919061065e565b60405180910390f35b3480156100ed57600080fd5b506100f66101ec565b005b34801561010457600080fd5b5061010d61036f565b60405161011a919061065e565b60405180910390f35b34801561012f57600080fd5b50610138610375565b604051610145919061065e565b60405180910390f35b34801561015a57600080fd5b50610175600480360381019061017091906106dc565b61037b565b604051610182919061065e565b60405180910390f35b34801561019757600080fd5b506101a0610393565b005b3480156101ae57600080fd5b506101b7610536565b6040516101c49190610718565b60405180910390f35b6101d561055a565b005b60006001546002541015905090565b60025481565b60008054906101000a900473ffffffffffffffffffffffffffffffffffffffff1673ffffffffffffffffffffffffffffffffffffffff163373ffffffffffffffffffffffffffffffffffffffff161461027a576040517f08c379a0000000000000000000000000000000000000000000000000000000008152600401610271906107b6565b60405180910390fd5b6003544210156102bf576040517f08c379a00000000000000000000000000000000000000000000000000000000081526004016102b690610822565b60405180910390fd5b6102c76101d7565b610306576040517f08c379a00000000000000000000000000000000000000000000000000000000081526004016102fd9061088e565b60405180910390fd5b60008054906101000a900473ffffffffffffffffffffffffffffffffffffffff1673ffffffffffffffffffffffffffffffffffffffff166108fc479081150290604051600060405180830381858888f1935050505015801561036c573d6000803e3d6000fd5b50565b60015481565b60035481565b60046020528060005260406000206000915090505481565b6003544210156103d8576040517f08c379a00000000000000000000000000000000000000000000000000000000081526004016103cf90610822565b60405180910390fd5b6103e06101d7565b15610420576040517f08c379a000000000000000000000000000000000000000000000000000000000815260040161041790610920565b60405180910390fd5b6000600460003373ffffffffffffffffffffffffffffffffffffffff1673ffffffffffffffffffffffffffffffffffffffff168152602001908152602001600020549050600081116104a7576040517f08c379a000000000000000000000000000000000000000000000000000000000815260040161049e906109b2565b60405180910390fd5b6000600460003373ffffffffffffffffffffffffffffffffffffffff1673ffffffffffffffffffffffffffffffffffffffff168152602001908152602001600020819055503373ffffffffffffffffffffffffffffffffffffffff166108fc829081150290604051600060405180830381858888f19350505050158015610532573d6000803e3d6000fd5b5050565b60008054906101000a900473ffffffffffffffffffffffffffffffffffffffff1681565b600354421061059e576040517f08c379a000000000000000000000000000000000000000000000000000000000815260040161059590610a1e565b60405180910390fd5b34600460003373ffffffffffffffffffffffffffffffffffffffff1673ffffffffffffffffffffffffffffffffffffffff16815260200190815260200160002060008282546105ed9190610a6d565b9250508190555034600260008282546106069190610a6d565b92505081905550565b60008115159050919050565b6106248161060f565b82525050565b600060208201905061063f600083018461061b565b92915050565b6000819050919050565b61065881610645565b82525050565b6000602082019050610673600083018461064f565b92915050565b600080fd5b600073ffffffffffffffffffffffffffffffffffffffff82169050919050565b60006106a98261067e565b9050919050565b6106b98161069e565b81146106c457600080fd5b50565b6000813590506106d6816106b0565b92915050565b6000602082840312156106f2576106f1610679565b5b6000610700848285016106c7565b91505092915050565b6107128161069e565b82525050565b600060208201905061072d6000830184610709565b92915050565b600082825260208201905092915050565b7f4f6e6c79207468652063616d706169676e206f776e65722063616e207769746860008201527f647261772066756e647300000000000000000000000000000000000000000000602082015250565b60006107a0602a83610733565b91506107ab82610744565b604082019050919050565b600060208201905081810360008301526107cf81610793565b9050919050565b7f43616d706169676e206973207374696c6c206163746976650000000000000000600082015250565b600061080c601883610733565b9150610817826107d6565b602082019050919050565b6000602082019050818103600083015261083b816107ff565b9050919050565b7f476f616c206e6f74207265616368656400000000000000000000000000000000600082015250565b6000610878601083610733565b915061088382610842565b602082019050919050565b600060208201905081810360008301526108a78161086b565b9050919050565b7f476f616c2077617320726561636865642c20726566756e647320617265206e6f60008201527f7420706f737369626c6500000000000000000000000000000000000000000000602082015250565b600061090a602a83610733565b9150610915826108ae565b604082019050919050565b60006020820190508181036000830152610939816108fd565b9050919050565b7f4e6f20636f6e747269627574696f6e7320666f756e6420666f7220746869732060008201527f6164647265737300000000000000000000000000000000000000000000000000602082015250565b600061099c602783610733565b91506109a782610940565b604082019050919050565b600060208201905081810360008301526109cb8161098f565b9050919050565b7f43616d706169676e2068617320656e6465640000000000000000000000000000600082015250565b6000610a08601283610733565b9150610a13826109d2565b602082019050919050565b60006020820190508181036000830152610a37816109fb565b9050919050565b7f4e487b7100000000000000000000000000000000000000000000000000000000600052601160045260246000fd5b6000610a7882610645565b9150610a8383610645565b9250828201905080821115610a9b57610a9a610a3e565b5b9291505056fea26469706673582212206cec7f9e90cc34a5d723ed285c0e99176b2b808922de1dc847b4e126865b3a9f64736f6c63430008180033",
    "linkReferences": {},
    "deployedLinkReferences": {}
}