{
    "_format": "hh-sol-artifact-1",
    "contractName": "KreativeToken",
    "sourceName": "blockchain/contracts/KreativeToken.sol",
    "abi": [
        {
            "inputs": [
                {
                    "internalType": "address",
                    "name": "initialOwner",
                    "type": "address"
                }
            ],
            "stateMutability": "nonpayable",
            "type": "constructor"
        },
        {
            "inputs": [
                {
                    "internalType": "address",
                    "name": "spender",
                    "type": "address"
                },
                {
                    "internalType": "uint256",
                    "name": "allowance",
                    "type": "uint256"
                },
                {
                    "internalType": "uint256",
                    "name": "needed",
                    "type": "uint256"
                }
            ],
            "name": "ERC20InsufficientAllowance",
            "type": "error"
        },
        {
            "inputs": [
                {
                    "internalType": "address",
                    "name": "sender",
                    "type": "address"
                },
                {
                    "internalType": "uint256",
                    "name": "balance",
                    "type": "uint256"
                },
                {
                    "internalType": "uint256",
                    "name": "needed",
                    "type": "uint256"
                }
            ],
            "name": "ERC20InsufficientBalance",
            "type": "error"
        },
        {
            "inputs": [
                {
                    "internalType": "address",
                    "name": "approver",
                    "type": "address"
                }
            ],
            "name": "ERC20InvalidApprover",
            "type": "error"
        },
        {
            "inputs": [
                {
                    "internalType": "address",
                    "name": "receiver",
                    "type": "address"
                }
            ],
            "name": "ERC20InvalidReceiver",
            "type": "error"
        },
        {
            "inputs": [
                {
                    "internalType": "address",
                    "name": "sender",
                    "type": "address"
                }
            ],
            "name": "ERC20InvalidSender",
            "type": "error"
        },
        {
            "inputs": [
                {
                    "internalType": "address",
                    "name": "spender",
                    "type": "address"
                }
            ],
            "name": "ERC20InvalidSpender",
            "type": "error"
        },
        {
            "inputs": [
                {
                    "internalType": "address",
                    "name": "owner",
                    "type": "address"
                }
            ],
            "name": "OwnableInvalidOwner",
            "type": "error"
        },
        {
            "inputs": [
                {
                    "internalType": "address",
                    "name": "account",
                    "type": "address"
                }
            ],
            "name": "OwnableUnauthorizedAccount",
            "type": "error"
        },
        {
            "anonymous": false,
            "inputs": [
                {
                    "indexed": true,
                    "internalType": "address",
                    "name": "owner",
                    "type": "address"
                },
                {
                    "indexed": true,
                    "internalType": "address",
                    "name": "spender",
                    "type": "address"
                },
                {
                    "indexed": false,
                    "internalType": "uint256",
                    "name": "value",
                    "type": "uint256"
                }
            ],
            "name": "Approval",
            "type": "event"
        },
        {
            "anonymous": false,
            "inputs": [
                {
                    "indexed": true,
                    "internalType": "address",
                    "name": "previousOwner",
                    "type": "address"
                },
                {
                    "indexed": true,
                    "internalType": "address",
                    "name": "newOwner",
                    "type": "address"
                }
            ],
            "name": "OwnershipTransferred",
            "type": "event"
        },
        {
            "anonymous": false,
            "inputs": [
                {
                    "indexed": true,
                    "internalType": "address",
                    "name": "from",
                    "type": "address"
                },
                {
                    "indexed": true,
                    "internalType": "address",
                    "name": "to",
                    "type": "address"
                },
                {
                    "indexed": false,
                    "internalType": "uint256",
                    "name": "value",
                    "type": "uint256"
                }
            ],
            "name": "Transfer",
            "type": "event"
        },
        {
            "inputs": [],
            "name": "RATE",
            "outputs": [
                {
                    "internalType": "uint256",
                    "name": "",
                    "type": "uint256"
                }
            ],
            "stateMutability": "view",
            "type": "function"
        },
        {
            "inputs": [],
            "name": "TOTAL_SUPPLY",
            "outputs": [
                {
                    "internalType": "uint256",
                    "name": "",
                    "type": "uint256"
                }
            ],
            "stateMutability": "view",
            "type": "function"
        },
        {
            "inputs": [
                {
                    "internalType": "address",
                    "name": "owner",
                    "type": "address"
                },
                {
                    "internalType": "address",
                    "name": "spender",
                    "type": "address"
                }
            ],
            "name": "allowance",
            "outputs": [
                {
                    "internalType": "uint256",
                    "name": "",
                    "type": "uint256"
                }
            ],
            "stateMutability": "view",
            "type": "function"
        },
        {
            "inputs": [
                {
                    "internalType": "address",
                    "name": "spender",
                    "type": "address"
                },
                {
                    "internalType": "uint256",
                    "name": "value",
                    "type": "uint256"
                }
            ],
            "name": "approve",
            "outputs": [
                {
                    "internalType": "bool",
                    "name": "",
                    "type": "bool"
                }
            ],
            "stateMutability": "nonpayable",
            "type": "function"
        },
        {
            "inputs": [
                {
                    "internalType": "address",
                    "name": "account",
                    "type": "address"
                }
            ],
            "name": "balanceOf",
            "outputs": [
                {
                    "internalType": "uint256",
                    "name": "",
                    "type": "uint256"
                }
            ],
            "stateMutability": "view",
            "type": "function"
        },
        {
            "inputs": [],
            "name": "buyTokens",
            "outputs": [],
            "stateMutability": "payable",
            "type": "function"
        },
        {
            "inputs": [],
            "name": "decimals",
            "outputs": [
                {
                    "internalType": "uint8",
                    "name": "",
                    "type": "uint8"
                }
            ],
            "stateMutability": "view",
            "type": "function"
        },
        {
            "inputs": [],
            "name": "name",
            "outputs": [
                {
                    "internalType": "string",
                    "name": "",
                    "type": "string"
                }
            ],
            "stateMutability": "view",
            "type": "function"
        },
        {
            "inputs": [],
            "name": "owner",
            "outputs": [
                {
                    "internalType": "address",
                    "name": "",
                    "type": "address"
                }
            ],
            "stateMutability": "view",
            "type": "function"
        },
        {
            "inputs": [],
            "name": "renounceOwnership",
            "outputs": [],
            "stateMutability": "nonpayable",
            "type": "function"
        },
        {
            "inputs": [],
            "name": "symbol",
            "outputs": [
                {
                    "internalType": "string",
                    "name": "",
                    "type": "string"
                }
            ],
            "stateMutability": "view",
            "type": "function"
        },
        {
            "inputs": [],
            "name": "totalSupply",
            "outputs": [
                {
                    "internalType": "uint256",
                    "name": "",
                    "type": "uint256"
                }
            ],
            "stateMutability": "view",
            "type": "function"
        },
        {
            "inputs": [
                {
                    "internalType": "address",
                    "name": "to",
                    "type": "address"
                },
                {
                    "internalType": "uint256",
                    "name": "value",
                    "type": "uint256"
                }
            ],
            "name": "transfer",
            "outputs": [
                {
                    "internalType": "bool",
                    "name": "",
                    "type": "bool"
                }
            ],
            "stateMutability": "nonpayable",
            "type": "function"
        },
        {
            "inputs": [
                {
                    "internalType": "address",
                    "name": "from",
                    "type": "address"
                },
                {
                    "internalType": "address",
                    "name": "to",
                    "type": "address"
                },
                {
                    "internalType": "uint256",
                    "name": "value",
                    "type": "uint256"
                }
            ],
            "name": "transferFrom",
            "outputs": [
                {
                    "internalType": "bool",
                    "name": "",
                    "type": "bool"
                }
            ],
            "stateMutability": "nonpayable",
            "type": "function"
        },
        {
            "inputs": [
                {
                    "internalType": "address",
                    "name": "newOwner",
                    "type": "address"
                }
            ],
            "name": "transferOwnership",
            "outputs": [],
            "stateMutability": "nonpayable",
            "type": "function"
        },
        {
            "inputs": [],
            "name": "withdraw",
            "outputs": [],
            "stateMutability": "nonpayable",
            "type": "function"
        }
    ],
    "bytecode": "0x60806040523480156200001157600080fd5b5060405162001eaa38038062001eaa8339818101604052810190620000379190620005d3565b806040518060400160405280600d81526020017f4b72656174697665546f6b656e000000000000000000000000000000000000008152506040518060400160405280600281526020017f4b540000000000000000000000000000000000000000000000000000000000008152508160039081620000b591906200087f565b508060049081620000c791906200087f565b505050600073ffffffffffffffffffffffffffffffffffffffff168173ffffffffffffffffffffffffffffffffffffffff16036200013f5760006040517f1e4fbdf700000000000000000000000000000000000000000000000000000000815260040162000136919062000977565b60405180910390fd5b6200015081620001e660201b60201c565b50600073ffffffffffffffffffffffffffffffffffffffff168173ffffffffffffffffffffffffffffffffffffffff1603620001c3576040517f08c379a0000000000000000000000000000000000000000000000000000000008152600401620001ba90620009f5565b60405180910390fd5b620001df8169d3c21bcecceda1000000620002ac60201b60201c565b5062000aec565b6000600560009054906101000a900473ffffffffffffffffffffffffffffffffffffffff16905081600560006101000a81548173ffffffffffffffffffffffffffffffffffffffff021916908373ffffffffffffffffffffffffffffffffffffffff1602179055508173ffffffffffffffffffffffffffffffffffffffff168173ffffffffffffffffffffffffffffffffffffffff167f8be0079c531659141344cd1fd0a4f28419497f9722a3daafe3b4186f6b6457e060405160405180910390a35050565b600073ffffffffffffffffffffffffffffffffffffffff168273ffffffffffffffffffffffffffffffffffffffff1603620003215760006040517fec442f0500000000000000000000000000000000000000000000000000000000815260040162000318919062000977565b60405180910390fd5b62000335600083836200033960201b60201c565b5050565b600073ffffffffffffffffffffffffffffffffffffffff168373ffffffffffffffffffffffffffffffffffffffff16036200038f57806002600082825462000382919062000a46565b9250508190555062000465565b60008060008573ffffffffffffffffffffffffffffffffffffffff1673ffffffffffffffffffffffffffffffffffffffff168152602001908152602001600020549050818110156200041e578381836040517fe450d38c000000000000000000000000000000000000000000000000000000008152600401620004159392919062000a92565b60405180910390fd5b8181036000808673ffffffffffffffffffffffffffffffffffffffff1673ffffffffffffffffffffffffffffffffffffffff16815260200190815260200160002081905550505b600073ffffffffffffffffffffffffffffffffffffffff168273ffffffffffffffffffffffffffffffffffffffff1603620004b05780600260008282540392505081905550620004fd565b806000808473ffffffffffffffffffffffffffffffffffffffff1673ffffffffffffffffffffffffffffffffffffffff168152602001908152602001600020600082825401925050819055505b8173ffffffffffffffffffffffffffffffffffffffff168373ffffffffffffffffffffffffffffffffffffffff167fddf252ad1be2c89b69c2b068fc378daa952ba7f163c4a11628f55a4df523b3ef836040516200055c919062000acf565b60405180910390a3505050565b600080fd5b600073ffffffffffffffffffffffffffffffffffffffff82169050919050565b60006200059b826200056e565b9050919050565b620005ad816200058e565b8114620005b957600080fd5b50565b600081519050620005cd81620005a2565b92915050565b600060208284031215620005ec57620005eb62000569565b5b6000620005fc84828501620005bc565b91505092915050565b600081519050919050565b7f4e487b7100000000000000000000000000000000000000000000000000000000600052604160045260246000fd5b7f4e487b7100000000000000000000000000000000000000000000000000000000600052602260045260246000fd5b600060028204905060018216806200068757607f821691505b6020821081036200069d576200069c6200063f565b5b50919050565b60008190508160005260206000209050919050565b60006020601f8301049050919050565b600082821b905092915050565b600060088302620007077fffffffffffffffffffffffffffffffffffffffffffffffffffffffffffffffff82620006c8565b620007138683620006c8565b95508019841693508086168417925050509392505050565b6000819050919050565b6000819050919050565b6000620007606200075a62000754846200072b565b62000735565b6200072b565b9050919050565b6000819050919050565b6200077c836200073f565b620007946200078b8262000767565b848454620006d5565b825550505050565b600090565b620007ab6200079c565b620007b881848462000771565b505050565b5b81811015620007e057620007d4600082620007a1565b600181019050620007be565b5050565b601f8211156200082f57620007f981620006a3565b6200080484620006b8565b8101602085101562000814578190505b6200082c6200082385620006b8565b830182620007bd565b50505b505050565b600082821c905092915050565b6000620008546000198460080262000834565b1980831691505092915050565b60006200086f838362000841565b9150826002028217905092915050565b6200088a8262000605565b67ffffffffffffffff811115620008a657620008a562000610565b5b620008b282546200066e565b620008bf828285620007e4565b600060209050601f831160018114620008f75760008415620008e2578287015190505b620008ee858262000861565b8655506200095e565b601f1984166200090786620006a3565b60005b8281101562000931578489015182556001820191506020850194506020810190506200090a565b868310156200095157848901516200094d601f89168262000841565b8355505b6001600288020188555050505b505050505050565b62000971816200058e565b82525050565b60006020820190506200098e600083018462000966565b92915050565b600082825260208201905092915050565b7f496e76616c6964206f776e657220616464726573730000000000000000000000600082015250565b6000620009dd60158362000994565b9150620009ea82620009a5565b602082019050919050565b6000602082019050818103600083015262000a1081620009ce565b9050919050565b7f4e487b7100000000000000000000000000000000000000000000000000000000600052601160045260246000fd5b600062000a53826200072b565b915062000a60836200072b565b925082820190508082111562000a7b5762000a7a62000a17565b5b92915050565b62000a8c816200072b565b82525050565b600060608201905062000aa9600083018662000966565b62000ab8602083018562000a81565b62000ac7604083018462000a81565b949350505050565b600060208201905062000ae6600083018462000a81565b92915050565b6113ae8062000afc6000396000f3fe6080604052600436106100f35760003560e01c8063715018a61161008a578063a9059cbb11610059578063a9059cbb1461030a578063d0febe4c14610347578063dd62ed3e14610351578063f2fde38b1461038e576100f3565b8063715018a6146102725780638da5cb5b14610289578063902d55a5146102b457806395d89b41146102df576100f3565b8063313ce567116100c6578063313ce567146101c85780633ccfd60b146101f3578063664e97041461020a57806370a0823114610235576100f3565b806306fdde03146100f8578063095ea7b31461012357806318160ddd1461016057806323b872dd1461018b575b600080fd5b34801561010457600080fd5b5061010d6103b7565b60405161011a9190610f54565b60405180910390f35b34801561012f57600080fd5b5061014a6004803603810190610145919061100f565b610449565b604051610157919061106a565b60405180910390f35b34801561016c57600080fd5b5061017561046c565b6040516101829190611094565b60405180910390f35b34801561019757600080fd5b506101b260048036038101906101ad91906110af565b610476565b6040516101bf919061106a565b60405180910390f35b3480156101d457600080fd5b506101dd6104a5565b6040516101ea919061111e565b60405180910390f35b3480156101ff57600080fd5b506102086104ae565b005b34801561021657600080fd5b5061021f610506565b60405161022c9190611094565b60405180910390f35b34801561024157600080fd5b5061025c60048036038101906102579190611139565b61050b565b6040516102699190611094565b60405180910390f35b34801561027e57600080fd5b50610287610553565b005b34801561029557600080fd5b5061029e610567565b6040516102ab9190611175565b60405180910390f35b3480156102c057600080fd5b506102c9610591565b6040516102d69190611094565b60405180910390f35b3480156102eb57600080fd5b506102f461059f565b6040516103019190610f54565b60405180910390f35b34801561031657600080fd5b50610331600480360381019061032c919061100f565b610631565b60405161033e919061106a565b60405180910390f35b61034f610654565b005b34801561035d57600080fd5b5061037860048036038101906103739190611190565b6106cc565b6040516103859190611094565b60405180910390f35b34801561039a57600080fd5b506103b560048036038101906103b09190611139565b610753565b005b6060600380546103c6906111ff565b80601f01602080910402602001604051908101604052809291908181526020018280546103f2906111ff565b801561043f5780601f106104145761010080835404028352916020019161043f565b820191906000526020600020905b81548152906001019060200180831161042257829003601f168201915b5050505050905090565b6000806104546107d9565b90506104618185856107e1565b600191505092915050565b6000600254905090565b6000806104816107d9565b905061048e8582856107f3565b610499858585610887565b60019150509392505050565b60006012905090565b6104b661097b565b6104be610567565b73ffffffffffffffffffffffffffffffffffffffff166108fc479081150290604051600060405180830381858888f19350505050158015610503573d6000803e3d6000fd5b50565b606481565b60008060008373ffffffffffffffffffffffffffffffffffffffff1673ffffffffffffffffffffffffffffffffffffffff168152602001908152602001600020549050919050565b61055b61097b565b6105656000610a02565b565b6000600560009054906101000a900473ffffffffffffffffffffffffffffffffffffffff16905090565b69d3c21bcecceda100000081565b6060600480546105ae906111ff565b80601f01602080910402602001604051908101604052809291908181526020018280546105da906111ff565b80156106275780601f106105fc57610100808354040283529160200191610627565b820191906000526020600020905b81548152906001019060200180831161060a57829003601f168201915b5050505050905090565b60008061063c6107d9565b9050610649818585610887565b600191505092915050565b6000606434610663919061125f565b905080610676610671610567565b61050b565b10156106b7576040517f08c379a00000000000000000000000000000000000000000000000000000000081526004016106ae906112ed565b60405180910390fd5b6106c96106c2610567565b3383610887565b50565b6000600160008473ffffffffffffffffffffffffffffffffffffffff1673ffffffffffffffffffffffffffffffffffffffff16815260200190815260200160002060008373ffffffffffffffffffffffffffffffffffffffff1673ffffffffffffffffffffffffffffffffffffffff16815260200190815260200160002054905092915050565b61075b61097b565b600073ffffffffffffffffffffffffffffffffffffffff168173ffffffffffffffffffffffffffffffffffffffff16036107cd5760006040517f1e4fbdf70000000000000000000000000000000000000000000000000000000081526004016107c49190611175565b60405180910390fd5b6107d681610a02565b50565b600033905090565b6107ee8383836001610ac8565b505050565b60006107ff84846106cc565b90507fffffffffffffffffffffffffffffffffffffffffffffffffffffffffffffffff81146108815781811015610871578281836040517ffb8f41b20000000000000000000000000000000000000000000000000000000081526004016108689392919061130d565b60405180910390fd5b61088084848484036000610ac8565b5b50505050565b600073ffffffffffffffffffffffffffffffffffffffff168373ffffffffffffffffffffffffffffffffffffffff16036108f95760006040517f96c6fd1e0000000000000000000000000000000000000000000000000000000081526004016108f09190611175565b60405180910390fd5b600073ffffffffffffffffffffffffffffffffffffffff168273ffffffffffffffffffffffffffffffffffffffff160361096b5760006040517fec442f050000000000000000000000000000000000000000000000000000000081526004016109629190611175565b60405180910390fd5b610976838383610c9f565b505050565b6109836107d9565b73ffffffffffffffffffffffffffffffffffffffff166109a1610567565b73ffffffffffffffffffffffffffffffffffffffff1614610a00576109c46107d9565b6040517f118cdaa70000000000000000000000000000000000000000000000000000000081526004016109f79190611175565b60405180910390fd5b565b6000600560009054906101000a900473ffffffffffffffffffffffffffffffffffffffff16905081600560006101000a81548173ffffffffffffffffffffffffffffffffffffffff021916908373ffffffffffffffffffffffffffffffffffffffff1602179055508173ffffffffffffffffffffffffffffffffffffffff168173ffffffffffffffffffffffffffffffffffffffff167f8be0079c531659141344cd1fd0a4f28419497f9722a3daafe3b4186f6b6457e060405160405180910390a35050565b600073ffffffffffffffffffffffffffffffffffffffff168473ffffffffffffffffffffffffffffffffffffffff1603610b3a5760006040517fe602df05000000000000000000000000000000000000000000000000000000008152600401610b319190611175565b60405180910390fd5b600073ffffffffffffffffffffffffffffffffffffffff168373ffffffffffffffffffffffffffffffffffffffff1603610bac5760006040517f94280d62000000000000000000000000000000000000000000000000000000008152600401610ba39190611175565b60405180910390fd5b81600160008673ffffffffffffffffffffffffffffffffffffffff1673ffffffffffffffffffffffffffffffffffffffff16815260200190815260200160002060008573ffffffffffffffffffffffffffffffffffffffff1673ffffffffffffffffffffffffffffffffffffffff168152602001908152602001600020819055508015610c99578273ffffffffffffffffffffffffffffffffffffffff168473ffffffffffffffffffffffffffffffffffffffff167f8c5be1e5ebec7d5bd14f71427d1e84f3dd0314c0f7b2291e5b200ac8c7c3b92584604051610c909190611094565b60405180910390a35b50505050565b600073ffffffffffffffffffffffffffffffffffffffff168373ffffffffffffffffffffffffffffffffffffffff1603610cf1578060026000828254610ce59190611344565b92505081905550610dc4565b60008060008573ffffffffffffffffffffffffffffffffffffffff1673ffffffffffffffffffffffffffffffffffffffff16815260200190815260200160002054905081811015610d7d578381836040517fe450d38c000000000000000000000000000000000000000000000000000000008152600401610d749392919061130d565b60405180910390fd5b8181036000808673ffffffffffffffffffffffffffffffffffffffff1673ffffffffffffffffffffffffffffffffffffffff16815260200190815260200160002081905550505b600073ffffffffffffffffffffffffffffffffffffffff168273ffffffffffffffffffffffffffffffffffffffff1603610e0d5780600260008282540392505081905550610e5a565b806000808473ffffffffffffffffffffffffffffffffffffffff1673ffffffffffffffffffffffffffffffffffffffff168152602001908152602001600020600082825401925050819055505b8173ffffffffffffffffffffffffffffffffffffffff168373ffffffffffffffffffffffffffffffffffffffff167fddf252ad1be2c89b69c2b068fc378daa952ba7f163c4a11628f55a4df523b3ef83604051610eb79190611094565b60405180910390a3505050565b600081519050919050565b600082825260208201905092915050565b60005b83811015610efe578082015181840152602081019050610ee3565b60008484015250505050565b6000601f19601f8301169050919050565b6000610f2682610ec4565b610f308185610ecf565b9350610f40818560208601610ee0565b610f4981610f0a565b840191505092915050565b60006020820190508181036000830152610f6e8184610f1b565b905092915050565b600080fd5b600073ffffffffffffffffffffffffffffffffffffffff82169050919050565b6000610fa682610f7b565b9050919050565b610fb681610f9b565b8114610fc157600080fd5b50565b600081359050610fd381610fad565b92915050565b6000819050919050565b610fec81610fd9565b8114610ff757600080fd5b50565b60008135905061100981610fe3565b92915050565b6000806040838503121561102657611025610f76565b5b600061103485828601610fc4565b925050602061104585828601610ffa565b9150509250929050565b60008115159050919050565b6110648161104f565b82525050565b600060208201905061107f600083018461105b565b92915050565b61108e81610fd9565b82525050565b60006020820190506110a96000830184611085565b92915050565b6000806000606084860312156110c8576110c7610f76565b5b60006110d686828701610fc4565b93505060206110e786828701610fc4565b92505060406110f886828701610ffa565b9150509250925092565b600060ff82169050919050565b61111881611102565b82525050565b6000602082019050611133600083018461110f565b92915050565b60006020828403121561114f5761114e610f76565b5b600061115d84828501610fc4565b91505092915050565b61116f81610f9b565b82525050565b600060208201905061118a6000830184611166565b92915050565b600080604083850312156111a7576111a6610f76565b5b60006111b585828601610fc4565b92505060206111c685828601610fc4565b9150509250929050565b7f4e487b7100000000000000000000000000000000000000000000000000000000600052602260045260246000fd5b6000600282049050600182168061121757607f821691505b60208210810361122a576112296111d0565b5b50919050565b7f4e487b7100000000000000000000000000000000000000000000000000000000600052601160045260246000fd5b600061126a82610fd9565b915061127583610fd9565b925082820261128381610fd9565b9150828204841483151761129a57611299611230565b5b5092915050565b7f4e6f7420656e6f75676820746f6b656e7320696e207468652072657365727665600082015250565b60006112d7602083610ecf565b91506112e2826112a1565b602082019050919050565b60006020820190508181036000830152611306816112ca565b9050919050565b60006060820190506113226000830186611166565b61132f6020830185611085565b61133c6040830184611085565b949350505050565b600061134f82610fd9565b915061135a83610fd9565b925082820190508082111561137257611371611230565b5b9291505056fea26469706673582212204fb1d026209923d0af950d93c5279ba81273d2dfef5d14e4f312d3055a8c269c64736f6c63430008180033",
    "linkReferences": {},
    "deployedLinkReferences": {}
}