{
  "_format": "hh-sol-artifact-1",
  "contractName": "KreativeToken",
  "sourceName": "contracts/KreativeToken.sol",
  "abi": [
    {
      "inputs": [],
      "stateMutability": "nonpayable",
      "type": "constructor"
    },
    {
      "anonymous": false,
      "inputs": [
        {
          "indexed": true,
          "internalType": "address",
          "name": "owner",
          "type": "address"
        },
        {
          "indexed": true,
          "internalType": "address",
          "name": "spender",
          "type": "address"
        },
        {
          "indexed": false,
          "internalType": "uint256",
          "name": "value",
          "type": "uint256"
        }
      ],
      "name": "Approval",
      "type": "event"
    },
    {
      "anonymous": false,
      "inputs": [
        {
          "indexed": true,
          "internalType": "address",
          "name": "previousOwner",
          "type": "address"
        },
        {
          "indexed": true,
          "internalType": "address",
          "name": "newOwner",
          "type": "address"
        }
      ],
      "name": "OwnershipTransferred",
      "type": "event"
    },
    {
      "anonymous": false,
      "inputs": [
        {
          "indexed": true,
          "internalType": "address",
          "name": "from",
          "type": "address"
        },
        {
          "indexed": true,
          "internalType": "address",
          "name": "to",
          "type": "address"
        },
        {
          "indexed": false,
          "internalType": "uint256",
          "name": "value",
          "type": "uint256"
        }
      ],
      "name": "Transfer",
      "type": "event"
    },
    {
      "inputs": [],
      "name": "RATE",
      "outputs": [
        {
          "internalType": "uint256",
          "name": "",
          "type": "uint256"
        }
      ],
      "stateMutability": "view",
      "type": "function"
    },
    {
      "inputs": [],
      "name": "TOTAL_SUPPLY",
      "outputs": [
        {
          "internalType": "uint256",
          "name": "",
          "type": "uint256"
        }
      ],
      "stateMutability": "view",
      "type": "function"
    },
    {
      "inputs": [
        {
          "internalType": "address",
          "name": "owner",
          "type": "address"
        },
        {
          "internalType": "address",
          "name": "spender",
          "type": "address"
        }
      ],
      "name": "allowance",
      "outputs": [
        {
          "internalType": "uint256",
          "name": "",
          "type": "uint256"
        }
      ],
      "stateMutability": "view",
      "type": "function"
    },
    {
      "inputs": [
        {
          "internalType": "address",
          "name": "spender",
          "type": "address"
        },
        {
          "internalType": "uint256",
          "name": "amount",
          "type": "uint256"
        }
      ],
      "name": "approve",
      "outputs": [
        {
          "internalType": "bool",
          "name": "",
          "type": "bool"
        }
      ],
      "stateMutability": "nonpayable",
      "type": "function"
    },
    {
      "inputs": [
        {
          "internalType": "address",
          "name": "account",
          "type": "address"
        }
      ],
      "name": "balanceOf",
      "outputs": [
        {
          "internalType": "uint256",
          "name": "",
          "type": "uint256"
        }
      ],
      "stateMutability": "view",
      "type": "function"
    },
    {
      "inputs": [],
      "name": "buyTokens",
      "outputs": [],
      "stateMutability": "payable",
      "type": "function"
    },
    {
      "inputs": [],
      "name": "decimals",
      "outputs": [
        {
          "internalType": "uint8",
          "name": "",
          "type": "uint8"
        }
      ],
      "stateMutability": "view",
      "type": "function"
    },
    {
      "inputs": [
        {
          "internalType": "address",
          "name": "spender",
          "type": "address"
        },
        {
          "internalType": "uint256",
          "name": "subtractedValue",
          "type": "uint256"
        }
      ],
      "name": "decreaseAllowance",
      "outputs": [
        {
          "internalType": "bool",
          "name": "",
          "type": "bool"
        }
      ],
      "stateMutability": "nonpayable",
      "type": "function"
    },
    {
      "inputs": [
        {
          "internalType": "address",
          "name": "spender",
          "type": "address"
        },
        {
          "internalType": "uint256",
          "name": "addedValue",
          "type": "uint256"
        }
      ],
      "name": "increaseAllowance",
      "outputs": [
        {
          "internalType": "bool",
          "name": "",
          "type": "bool"
        }
      ],
      "stateMutability": "nonpayable",
      "type": "function"
    },
    {
      "inputs": [],
      "name": "name",
      "outputs": [
        {
          "internalType": "string",
          "name": "",
          "type": "string"
        }
      ],
      "stateMutability": "view",
      "type": "function"
    },
    {
      "inputs": [],
      "name": "owner",
      "outputs": [
        {
          "internalType": "address",
          "name": "",
          "type": "address"
        }
      ],
      "stateMutability": "view",
      "type": "function"
    },
    {
      "inputs": [],
      "name": "renounceOwnership",
      "outputs": [],
      "stateMutability": "nonpayable",
      "type": "function"
    },
    {
      "inputs": [],
      "name": "symbol",
      "outputs": [
        {
          "internalType": "string",
          "name": "",
          "type": "string"
        }
      ],
      "stateMutability": "view",
      "type": "function"
    },
    {
      "inputs": [],
      "name": "totalSupply",
      "outputs": [
        {
          "internalType": "uint256",
          "name": "",
          "type": "uint256"
        }
      ],
      "stateMutability": "view",
      "type": "function"
    },
    {
      "inputs": [
        {
          "internalType": "address",
          "name": "to",
          "type": "address"
        },
        {
          "internalType": "uint256",
          "name": "amount",
          "type": "uint256"
        }
      ],
      "name": "transfer",
      "outputs": [
        {
          "internalType": "bool",
          "name": "",
          "type": "bool"
        }
      ],
      "stateMutability": "nonpayable",
      "type": "function"
    },
    {
      "inputs": [
        {
          "internalType": "address",
          "name": "from",
          "type": "address"
        },
        {
          "internalType": "address",
          "name": "to",
          "type": "address"
        },
        {
          "internalType": "uint256",
          "name": "amount",
          "type": "uint256"
        }
      ],
      "name": "transferFrom",
      "outputs": [
        {
          "internalType": "bool",
          "name": "",
          "type": "bool"
        }
      ],
      "stateMutability": "nonpayable",
      "type": "function"
    },
    {
      "inputs": [
        {
          "internalType": "address",
          "name": "newOwner",
          "type": "address"
        }
      ],
      "name": "transferOwnership",
      "outputs": [],
      "stateMutability": "nonpayable",
      "type": "function"
    },
    {
      "inputs": [],
      "name": "withdraw",
      "outputs": [],
      "stateMutability": "nonpayable",
      "type": "function"
    }
  ],
  "bytecode": "0x60806040523480156200001157600080fd5b506040518060400160405280600d81526020017f4b72656174697665546f6b656e000000000000000000000000000000000000008152506040518060400160405280600281526020017f4b5400000000000000000000000000000000000000000000000000000000000081525081600390816200008f9190620005a5565b508060049081620000a19190620005a5565b505050620000c4620000b8620000e660201b60201c565b620000ee60201b60201c565b620000e03369d3c21bcecceda1000000620001b460201b60201c565b620007a7565b600033905090565b6000600560009054906101000a900473ffffffffffffffffffffffffffffffffffffffff16905081600560006101000a81548173ffffffffffffffffffffffffffffffffffffffff021916908373ffffffffffffffffffffffffffffffffffffffff1602179055508173ffffffffffffffffffffffffffffffffffffffff168173ffffffffffffffffffffffffffffffffffffffff167f8be0079c531659141344cd1fd0a4f28419497f9722a3daafe3b4186f6b6457e060405160405180910390a35050565b600073ffffffffffffffffffffffffffffffffffffffff168273ffffffffffffffffffffffffffffffffffffffff160362000226576040517f08c379a00000000000000000000000000000000000000000000000000000000081526004016200021d90620006ed565b60405180910390fd5b6200023a600083836200032160201b60201c565b80600260008282546200024e91906200073e565b92505081905550806000808473ffffffffffffffffffffffffffffffffffffffff1673ffffffffffffffffffffffffffffffffffffffff168152602001908152602001600020600082825401925050819055508173ffffffffffffffffffffffffffffffffffffffff16600073ffffffffffffffffffffffffffffffffffffffff167fddf252ad1be2c89b69c2b068fc378daa952ba7f163c4a11628f55a4df523b3ef836040516200030191906200078a565b60405180910390a36200031d600083836200032660201b60201c565b5050565b505050565b505050565b600081519050919050565b7f4e487b7100000000000000000000000000000000000000000000000000000000600052604160045260246000fd5b7f4e487b7100000000000000000000000000000000000000000000000000000000600052602260045260246000fd5b60006002820490506001821680620003ad57607f821691505b602082108103620003c357620003c262000365565b5b50919050565b60008190508160005260206000209050919050565b60006020601f8301049050919050565b600082821b905092915050565b6000600883026200042d7fffffffffffffffffffffffffffffffffffffffffffffffffffffffffffffffff82620003ee565b620004398683620003ee565b95508019841693508086168417925050509392505050565b6000819050919050565b6000819050919050565b600062000486620004806200047a8462000451565b6200045b565b62000451565b9050919050565b6000819050919050565b620004a28362000465565b620004ba620004b1826200048d565b848454620003fb565b825550505050565b600090565b620004d1620004c2565b620004de81848462000497565b505050565b5b818110156200050657620004fa600082620004c7565b600181019050620004e4565b5050565b601f82111562000555576200051f81620003c9565b6200052a84620003de565b810160208510156200053a578190505b620005526200054985620003de565b830182620004e3565b50505b505050565b600082821c905092915050565b60006200057a600019846008026200055a565b1980831691505092915050565b600062000595838362000567565b9150826002028217905092915050565b620005b0826200032b565b67ffffffffffffffff811115620005cc57620005cb62000336565b5b620005d8825462000394565b620005e58282856200050a565b600060209050601f8311600181146200061d576000841562000608578287015190505b62000614858262000587565b86555062000684565b601f1984166200062d86620003c9565b60005b82811015620006575784890151825560018201915060208501945060208101905062000630565b8683101562000677578489015162000673601f89168262000567565b8355505b6001600288020188555050505b505050505050565b600082825260208201905092915050565b7f45524332303a206d696e7420746f20746865207a65726f206164647265737300600082015250565b6000620006d5601f836200068c565b9150620006e2826200069d565b602082019050919050565b600060208201905081810360008301526200070881620006c6565b9050919050565b7f4e487b7100000000000000000000000000000000000000000000000000000000600052601160045260246000fd5b60006200074b8262000451565b9150620007588362000451565b92508282019050808211156200077357620007726200070f565b5b92915050565b620007848162000451565b82525050565b6000602082019050620007a1600083018462000779565b92915050565b6118be80620007b76000396000f3fe6080604052600436106101095760003560e01c8063715018a611610095578063a457c2d711610064578063a457c2d71461035d578063a9059cbb1461039a578063d0febe4c146103d7578063dd62ed3e146103e1578063f2fde38b1461041e57610109565b8063715018a6146102c55780638da5cb5b146102dc578063902d55a51461030757806395d89b411461033257610109565b8063313ce567116100dc578063313ce567146101de57806339509351146102095780633ccfd60b14610246578063664e97041461025d57806370a082311461028857610109565b806306fdde031461010e578063095ea7b31461013957806318160ddd1461017657806323b872dd146101a1575b600080fd5b34801561011a57600080fd5b50610123610447565b6040516101309190610fc5565b60405180910390f35b34801561014557600080fd5b50610160600480360381019061015b9190611080565b6104d9565b60405161016d91906110db565b60405180910390f35b34801561018257600080fd5b5061018b6104fc565b6040516101989190611105565b60405180910390f35b3480156101ad57600080fd5b506101c860048036038101906101c39190611120565b610506565b6040516101d591906110db565b60405180910390f35b3480156101ea57600080fd5b506101f3610535565b604051610200919061118f565b60405180910390f35b34801561021557600080fd5b50610230600480360381019061022b9190611080565b61053e565b60405161023d91906110db565b60405180910390f35b34801561025257600080fd5b5061025b610575565b005b34801561026957600080fd5b506102726105cd565b60405161027f9190611105565b60405180910390f35b34801561029457600080fd5b506102af60048036038101906102aa91906111aa565b6105d2565b6040516102bc9190611105565b60405180910390f35b3480156102d157600080fd5b506102da61061a565b005b3480156102e857600080fd5b506102f161062e565b6040516102fe91906111e6565b60405180910390f35b34801561031357600080fd5b5061031c610658565b6040516103299190611105565b60405180910390f35b34801561033e57600080fd5b50610347610666565b6040516103549190610fc5565b60405180910390f35b34801561036957600080fd5b50610384600480360381019061037f9190611080565b6106f8565b60405161039191906110db565b60405180910390f35b3480156103a657600080fd5b506103c160048036038101906103bc9190611080565b61076f565b6040516103ce91906110db565b60405180910390f35b6103df610792565b005b3480156103ed57600080fd5b5061040860048036038101906104039190611201565b61080a565b6040516104159190611105565b60405180910390f35b34801561042a57600080fd5b50610445600480360381019061044091906111aa565b610891565b005b60606003805461045690611270565b80601f016020809104026020016040519081016040528092919081815260200182805461048290611270565b80156104cf5780601f106104a4576101008083540402835291602001916104cf565b820191906000526020600020905b8154815290600101906020018083116104b257829003601f168201915b5050505050905090565b6000806104e4610914565b90506104f181858561091c565b600191505092915050565b6000600254905090565b600080610511610914565b905061051e858285610ae5565b610529858585610b71565b60019150509392505050565b60006012905090565b600080610549610914565b905061056a81858561055b858961080a565b61056591906112d0565b61091c565b600191505092915050565b61057d610de7565b61058561062e565b73ffffffffffffffffffffffffffffffffffffffff166108fc479081150290604051600060405180830381858888f193505050501580156105ca573d6000803e3d6000fd5b50565b606481565b60008060008373ffffffffffffffffffffffffffffffffffffffff1673ffffffffffffffffffffffffffffffffffffffff168152602001908152602001600020549050919050565b610622610de7565b61062c6000610e65565b565b6000600560009054906101000a900473ffffffffffffffffffffffffffffffffffffffff16905090565b69d3c21bcecceda100000081565b60606004805461067590611270565b80601f01602080910402602001604051908101604052809291908181526020018280546106a190611270565b80156106ee5780601f106106c3576101008083540402835291602001916106ee565b820191906000526020600020905b8154815290600101906020018083116106d157829003601f168201915b5050505050905090565b600080610703610914565b90506000610711828661080a565b905083811015610756576040517f08c379a000000000000000000000000000000000000000000000000000000000815260040161074d90611376565b60405180910390fd5b610763828686840361091c565b60019250505092915050565b60008061077a610914565b9050610787818585610b71565b600191505092915050565b60006064346107a19190611396565b9050806107b46107af61062e565b6105d2565b10156107f5576040517f08c379a00000000000000000000000000000000000000000000000000000000081526004016107ec90611424565b60405180910390fd5b61080761080061062e565b3383610b71565b50565b6000600160008473ffffffffffffffffffffffffffffffffffffffff1673ffffffffffffffffffffffffffffffffffffffff16815260200190815260200160002060008373ffffffffffffffffffffffffffffffffffffffff1673ffffffffffffffffffffffffffffffffffffffff16815260200190815260200160002054905092915050565b610899610de7565b600073ffffffffffffffffffffffffffffffffffffffff168173ffffffffffffffffffffffffffffffffffffffff1603610908576040517f08c379a00000000000000000000000000000000000000000000000000000000081526004016108ff906114b6565b60405180910390fd5b61091181610e65565b50565b600033905090565b600073ffffffffffffffffffffffffffffffffffffffff168373ffffffffffffffffffffffffffffffffffffffff160361098b576040517f08c379a000000000000000000000000000000000000000000000000000000000815260040161098290611548565b60405180910390fd5b600073ffffffffffffffffffffffffffffffffffffffff168273ffffffffffffffffffffffffffffffffffffffff16036109fa576040517f08c379a00000000000000000000000000000000000000000000000000000000081526004016109f1906115da565b60405180910390fd5b80600160008573ffffffffffffffffffffffffffffffffffffffff1673ffffffffffffffffffffffffffffffffffffffff16815260200190815260200160002060008473ffffffffffffffffffffffffffffffffffffffff1673ffffffffffffffffffffffffffffffffffffffff168152602001908152602001600020819055508173ffffffffffffffffffffffffffffffffffffffff168373ffffffffffffffffffffffffffffffffffffffff167f8c5be1e5ebec7d5bd14f71427d1e84f3dd0314c0f7b2291e5b200ac8c7c3b92583604051610ad89190611105565b60405180910390a3505050565b6000610af1848461080a565b90507fffffffffffffffffffffffffffffffffffffffffffffffffffffffffffffffff8114610b6b5781811015610b5d576040517f08c379a0000000000000000000000000000000000000000000000000000000008152600401610b5490611646565b60405180910390fd5b610b6a848484840361091c565b5b50505050565b600073ffffffffffffffffffffffffffffffffffffffff168373ffffffffffffffffffffffffffffffffffffffff1603610be0576040517f08c379a0000000000000000000000000000000000000000000000000000000008152600401610bd7906116d8565b60405180910390fd5b600073ffffffffffffffffffffffffffffffffffffffff168273ffffffffffffffffffffffffffffffffffffffff1603610c4f576040517f08c379a0000000000000000000000000000000000000000000000000000000008152600401610c469061176a565b60405180910390fd5b610c5a838383610f2b565b60008060008573ffffffffffffffffffffffffffffffffffffffff1673ffffffffffffffffffffffffffffffffffffffff16815260200190815260200160002054905081811015610ce0576040517f08c379a0000000000000000000000000000000000000000000000000000000008152600401610cd7906117fc565b60405180910390fd5b8181036000808673ffffffffffffffffffffffffffffffffffffffff1673ffffffffffffffffffffffffffffffffffffffff16815260200190815260200160002081905550816000808573ffffffffffffffffffffffffffffffffffffffff1673ffffffffffffffffffffffffffffffffffffffff168152602001908152602001600020600082825401925050819055508273ffffffffffffffffffffffffffffffffffffffff168473ffffffffffffffffffffffffffffffffffffffff167fddf252ad1be2c89b69c2b068fc378daa952ba7f163c4a11628f55a4df523b3ef84604051610dce9190611105565b60405180910390a3610de1848484610f30565b50505050565b610def610914565b73ffffffffffffffffffffffffffffffffffffffff16610e0d61062e565b73ffffffffffffffffffffffffffffffffffffffff1614610e63576040517f08c379a0000000000000000000000000000000000000000000000000000000008152600401610e5a90611868565b60405180910390fd5b565b6000600560009054906101000a900473ffffffffffffffffffffffffffffffffffffffff16905081600560006101000a81548173ffffffffffffffffffffffffffffffffffffffff021916908373ffffffffffffffffffffffffffffffffffffffff1602179055508173ffffffffffffffffffffffffffffffffffffffff168173ffffffffffffffffffffffffffffffffffffffff167f8be0079c531659141344cd1fd0a4f28419497f9722a3daafe3b4186f6b6457e060405160405180910390a35050565b505050565b505050565b600081519050919050565b600082825260208201905092915050565b60005b83811015610f6f578082015181840152602081019050610f54565b60008484015250505050565b6000601f19601f8301169050919050565b6000610f9782610f35565b610fa18185610f40565b9350610fb1818560208601610f51565b610fba81610f7b565b840191505092915050565b60006020820190508181036000830152610fdf8184610f8c565b905092915050565b600080fd5b600073ffffffffffffffffffffffffffffffffffffffff82169050919050565b600061101782610fec565b9050919050565b6110278161100c565b811461103257600080fd5b50565b6000813590506110448161101e565b92915050565b6000819050919050565b61105d8161104a565b811461106857600080fd5b50565b60008135905061107a81611054565b92915050565b6000806040838503121561109757611096610fe7565b5b60006110a585828601611035565b92505060206110b68582860161106b565b9150509250929050565b60008115159050919050565b6110d5816110c0565b82525050565b60006020820190506110f060008301846110cc565b92915050565b6110ff8161104a565b82525050565b600060208201905061111a60008301846110f6565b92915050565b60008060006060848603121561113957611138610fe7565b5b600061114786828701611035565b935050602061115886828701611035565b92505060406111698682870161106b565b9150509250925092565b600060ff82169050919050565b61118981611173565b82525050565b60006020820190506111a46000830184611180565b92915050565b6000602082840312156111c0576111bf610fe7565b5b60006111ce84828501611035565b91505092915050565b6111e08161100c565b82525050565b60006020820190506111fb60008301846111d7565b92915050565b6000806040838503121561121857611217610fe7565b5b600061122685828601611035565b925050602061123785828601611035565b9150509250929050565b7f4e487b7100000000000000000000000000000000000000000000000000000000600052602260045260246000fd5b6000600282049050600182168061128857607f821691505b60208210810361129b5761129a611241565b5b50919050565b7f4e487b7100000000000000000000000000000000000000000000000000000000600052601160045260246000fd5b60006112db8261104a565b91506112e68361104a565b92508282019050808211156112fe576112fd6112a1565b5b92915050565b7f45524332303a2064656372656173656420616c6c6f77616e63652062656c6f7760008201527f207a65726f000000000000000000000000000000000000000000000000000000602082015250565b6000611360602583610f40565b915061136b82611304565b604082019050919050565b6000602082019050818103600083015261138f81611353565b9050919050565b60006113a18261104a565b91506113ac8361104a565b92508282026113ba8161104a565b915082820484148315176113d1576113d06112a1565b5b5092915050565b7f4e6f7420656e6f75676820746f6b656e7320696e207468652072657365727665600082015250565b600061140e602083610f40565b9150611419826113d8565b602082019050919050565b6000602082019050818103600083015261143d81611401565b9050919050565b7f4f776e61626c653a206e6577206f776e657220697320746865207a65726f206160008201527f6464726573730000000000000000000000000000000000000000000000000000602082015250565b60006114a0602683610f40565b91506114ab82611444565b604082019050919050565b600060208201905081810360008301526114cf81611493565b9050919050565b7f45524332303a20617070726f76652066726f6d20746865207a65726f2061646460008201527f7265737300000000000000000000000000000000000000000000000000000000602082015250565b6000611532602483610f40565b915061153d826114d6565b604082019050919050565b6000602082019050818103600083015261156181611525565b9050919050565b7f45524332303a20617070726f766520746f20746865207a65726f20616464726560008201527f7373000000000000000000000000000000000000000000000000000000000000602082015250565b60006115c4602283610f40565b91506115cf82611568565b604082019050919050565b600060208201905081810360008301526115f3816115b7565b9050919050565b7f45524332303a20696e73756666696369656e7420616c6c6f77616e6365000000600082015250565b6000611630601d83610f40565b915061163b826115fa565b602082019050919050565b6000602082019050818103600083015261165f81611623565b9050919050565b7f45524332303a207472616e736665722066726f6d20746865207a65726f20616460008201527f6472657373000000000000000000000000000000000000000000000000000000602082015250565b60006116c2602583610f40565b91506116cd82611666565b604082019050919050565b600060208201905081810360008301526116f1816116b5565b9050919050565b7f45524332303a207472616e7366657220746f20746865207a65726f206164647260008201527f6573730000000000000000000000000000000000000000000000000000000000602082015250565b6000611754602383610f40565b915061175f826116f8565b604082019050919050565b6000602082019050818103600083015261178381611747565b9050919050565b7f45524332303a207472616e7366657220616d6f756e742065786365656473206260008201527f616c616e63650000000000000000000000000000000000000000000000000000602082015250565b60006117e6602683610f40565b91506117f18261178a565b604082019050919050565b60006020820190508181036000830152611815816117d9565b9050919050565b7f4f776e61626c653a2063616c6c6572206973206e6f7420746865206f776e6572600082015250565b6000611852602083610f40565b915061185d8261181c565b602082019050919050565b6000602082019050818103600083015261188181611845565b905091905056fea26469706673582212208e421553dbfc3f5794620208fb05889416ec1f07fd16ae09fe0c34959d6dcca164736f6c63430008180033",
  "linkReferences": {},
  "deployedLinkReferences": {}
}