{
  "_format": "hh-sol-artifact-1",
  "contractName": "CrowdfundingFactory",
  "sourceName": "contracts/CrowdfundingFactory.sol",
  "abi": [
    {
      "inputs": [
        {
          "internalType": "address",
          "name": "_kreativeTokenAddress",
          "type": "address"
        }
      ],
      "stateMutability": "nonpayable",
      "type": "constructor"
    },
    {
      "anonymous": false,
      "inputs": [
        {
          "indexed": true,
          "internalType": "uint256",
          "name": "campaignId",
          "type": "uint256"
        },
        {
          "indexed": false,
          "internalType": "string",
          "name": "name",
          "type": "string"
        },
        {
          "indexed": false,
          "internalType": "address",
          "name": "creator",
          "type": "address"
        },
        {
          "indexed": false,
          "internalType": "uint256",
          "name": "goal",
          "type": "uint256"
        },
        {
          "indexed": false,
          "internalType": "uint256",
          "name": "deadline",
          "type": "uint256"
        }
      ],
      "name": "CampaignCreated",
      "type": "event"
    },
    {
      "anonymous": false,
      "inputs": [
        {
          "indexed": true,
          "internalType": "uint256",
          "name": "campaignId",
          "type": "uint256"
        }
      ],
      "name": "CampaignFailed",
      "type": "event"
    },
    {
      "anonymous": false,
      "inputs": [
        {
          "indexed": true,
          "internalType": "uint256",
          "name": "campaignId",
          "type": "uint256"
        }
      ],
      "name": "CampaignSuccessful",
      "type": "event"
    },
    {
      "anonymous": false,
      "inputs": [
        {
          "indexed": true,
          "internalType": "uint256",
          "name": "campaignId",
          "type": "uint256"
        },
        {
          "indexed": false,
          "internalType": "address",
          "name": "contributor",
          "type": "address"
        },
        {
          "indexed": false,
          "internalType": "uint256",
          "name": "amount",
          "type": "uint256"
        }
      ],
      "name": "ContributionMade",
      "type": "event"
    },
    {
      "anonymous": false,
      "inputs": [
        {
          "indexed": true,
          "internalType": "address",
          "name": "previousOwner",
          "type": "address"
        },
        {
          "indexed": true,
          "internalType": "address",
          "name": "newOwner",
          "type": "address"
        }
      ],
      "name": "OwnershipTransferred",
      "type": "event"
    },
    {
      "inputs": [],
      "name": "campaignCount",
      "outputs": [
        {
          "internalType": "uint256",
          "name": "",
          "type": "uint256"
        }
      ],
      "stateMutability": "view",
      "type": "function"
    },
    {
      "inputs": [
        {
          "internalType": "string",
          "name": "",
          "type": "string"
        }
      ],
      "name": "campaignIdsByName",
      "outputs": [
        {
          "internalType": "uint256",
          "name": "",
          "type": "uint256"
        }
      ],
      "stateMutability": "view",
      "type": "function"
    },
    {
      "inputs": [
        {
          "internalType": "uint256",
          "name": "",
          "type": "uint256"
        }
      ],
      "name": "campaigns",
      "outputs": [
        {
          "internalType": "address payable",
          "name": "creator",
          "type": "address"
        },
        {
          "internalType": "string",
          "name": "name",
          "type": "string"
        },
        {
          "internalType": "uint256",
          "name": "goal",
          "type": "uint256"
        },
        {
          "internalType": "uint256",
          "name": "raised",
          "type": "uint256"
        },
        {
          "internalType": "uint256",
          "name": "deadline",
          "type": "uint256"
        },
        {
          "internalType": "bool",
          "name": "active",
          "type": "bool"
        }
      ],
      "stateMutability": "view",
      "type": "function"
    },
    {
      "inputs": [
        {
          "internalType": "string",
          "name": "_name",
          "type": "string"
        }
      ],
      "name": "checkCampaignStatus",
      "outputs": [],
      "stateMutability": "nonpayable",
      "type": "function"
    },
    {
      "inputs": [
        {
          "internalType": "string",
          "name": "_name",
          "type": "string"
        },
        {
          "internalType": "uint256",
          "name": "_amount",
          "type": "uint256"
        }
      ],
      "name": "contribute",
      "outputs": [],
      "stateMutability": "nonpayable",
      "type": "function"
    },
    {
      "inputs": [
        {
          "internalType": "string",
          "name": "_name",
          "type": "string"
        },
        {
          "internalType": "uint256",
          "name": "_goal",
          "type": "uint256"
        },
        {
          "internalType": "uint256",
          "name": "_days",
          "type": "uint256"
        },
        {
          "internalType": "uint256",
          "name": "_hours",
          "type": "uint256"
        },
        {
          "internalType": "uint256",
          "name": "_minutes",
          "type": "uint256"
        }
      ],
      "name": "createCampaign",
      "outputs": [],
      "stateMutability": "nonpayable",
      "type": "function"
    },
    {
      "inputs": [],
      "name": "feePercentage",
      "outputs": [
        {
          "internalType": "uint256",
          "name": "",
          "type": "uint256"
        }
      ],
      "stateMutability": "view",
      "type": "function"
    },
    {
      "inputs": [
        {
          "internalType": "string",
          "name": "_name",
          "type": "string"
        }
      ],
      "name": "getCampaignIdByName",
      "outputs": [
        {
          "internalType": "uint256",
          "name": "",
          "type": "uint256"
        }
      ],
      "stateMutability": "view",
      "type": "function"
    },
    {
      "inputs": [],
      "name": "kreativeToken",
      "outputs": [
        {
          "internalType": "contract IERC20",
          "name": "",
          "type": "address"
        }
      ],
      "stateMutability": "view",
      "type": "function"
    },
    {
      "inputs": [],
      "name": "owner",
      "outputs": [
        {
          "internalType": "address",
          "name": "",
          "type": "address"
        }
      ],
      "stateMutability": "view",
      "type": "function"
    },
    {
      "inputs": [],
      "name": "renounceOwnership",
      "outputs": [],
      "stateMutability": "nonpayable",
      "type": "function"
    },
    {
      "inputs": [],
      "name": "totalFees",
      "outputs": [
        {
          "internalType": "uint256",
          "name": "",
          "type": "uint256"
        }
      ],
      "stateMutability": "view",
      "type": "function"
    },
    {
      "inputs": [
        {
          "internalType": "address",
          "name": "newOwner",
          "type": "address"
        }
      ],
      "name": "transferOwnership",
      "outputs": [],
      "stateMutability": "nonpayable",
      "type": "function"
    },
    {
      "inputs": [],
      "name": "withdrawFees",
      "outputs": [],
      "stateMutability": "nonpayable",
      "type": "function"
    }
  ],
  "bytecode": "0x608060405260016006553480156200001657600080fd5b506040516200216a3803806200216a83398181016040528101906200003c9190620001e1565b6200005c62000050620000ab60201b60201c565b620000b360201b60201c565b6001808190555080600560006101000a81548173ffffffffffffffffffffffffffffffffffffffff021916908373ffffffffffffffffffffffffffffffffffffffff1602179055505062000213565b600033905090565b60008060009054906101000a900473ffffffffffffffffffffffffffffffffffffffff169050816000806101000a81548173ffffffffffffffffffffffffffffffffffffffff021916908373ffffffffffffffffffffffffffffffffffffffff1602179055508173ffffffffffffffffffffffffffffffffffffffff168173ffffffffffffffffffffffffffffffffffffffff167f8be0079c531659141344cd1fd0a4f28419497f9722a3daafe3b4186f6b6457e060405160405180910390a35050565b600080fd5b600073ffffffffffffffffffffffffffffffffffffffff82169050919050565b6000620001a9826200017c565b9050919050565b620001bb816200019c565b8114620001c757600080fd5b50565b600081519050620001db81620001b0565b92915050565b600060208284031215620001fa57620001f962000177565b5b60006200020a84828501620001ca565b91505092915050565b611f4780620002236000396000f3fe608060405234801561001057600080fd5b50600436106100ea5760003560e01c80638da5cb5b1161008c578063a2f78e7811610066578063a2f78e781461022c578063ae817f9a1461024a578063c79de09b14610266578063f2fde38b14610282576100ea565b80638da5cb5b146101c057806392691244146101de578063a001ecdd1461020e576100ea565b80634981f557116100c85780634981f5571461014c5780636770b75d1461017c578063715018a6146101985780637274e30d146101a2576100ea565b806313114a9d146100ef578063141961bc1461010d578063476343ee14610142575b600080fd5b6100f761029e565b6040516101049190610ecd565b60405180910390f35b61012760048036038101906101229190610f28565b6102a4565b60405161013996959493929190611041565b60405180910390f35b61014a610395565b005b610166600480360381019061016191906111de565b610461565b6040516101739190610ecd565b60405180910390f35b61019660048036038101906101919190611287565b61048f565b005b6101a0610573565b005b6101aa610587565b6040516101b79190610ecd565b60405180910390f35b6101c861058d565b6040516101d591906112f5565b60405180910390f35b6101f860048036038101906101f39190611287565b6105b6565b6040516102059190610ecd565b60405180910390f35b6102166105e1565b6040516102239190610ecd565b60405180910390f35b6102346105e7565b604051610241919061136f565b60405180910390f35b610264600480360381019061025f919061138a565b61060d565b005b610280600480360381019061027b91906113ea565b610999565b005b61029c600480360381019061029791906114b0565b610c8f565b005b60075481565b60026020528060005260406000206000915090508060000160009054906101000a900473ffffffffffffffffffffffffffffffffffffffff16908060010180546102ed9061150c565b80601f01602080910402602001604051908101604052809291908181526020018280546103199061150c565b80156103665780601f1061033b57610100808354040283529160200191610366565b820191906000526020600020905b81548152906001019060200180831161034957829003601f168201915b5050505050908060020154908060030154908060040154908060050160009054906101000a900460ff16905086565b61039d610d12565b6103a5610d90565b600560009054906101000a900473ffffffffffffffffffffffffffffffffffffffff1673ffffffffffffffffffffffffffffffffffffffff1663a9059cbb6103eb61058d565b6007546040518363ffffffff1660e01b815260040161040b92919061153d565b6020604051808303816000875af115801561042a573d6000803e3d6000fd5b505050506040513d601f19601f8201168201806040525081019061044e9190611592565b50600060078190555061045f610ddf565b565b6003818051602081018201805184825260208301602085012081835280955050505050506000915090505481565b6000600383836040516104a39291906115ef565b908152602001604051809103902054905060006002600083815260200190815260200160002090508060040154421015610512576040517f08c379a000000000000000000000000000000000000000000000000000000000815260040161050990611654565b60405180910390fd5b80600201548160030154101561056d5760008160050160006101000a81548160ff021916908315150217905550817f7b1418b19a03b176f641639ee79855da661fa88a08377ecd32ad6d38152b953660405160405180910390a25b50505050565b61057b610d12565b6105856000610de8565b565b60045481565b60008060009054906101000a900473ffffffffffffffffffffffffffffffffffffffff16905090565b6000600383836040516105ca9291906115ef565b908152602001604051809103902054905092915050565b60065481565b600560009054906101000a900473ffffffffffffffffffffffffffffffffffffffff1681565b610615610d90565b6000600384846040516106299291906115ef565b9081526020016040518091039020549050600060026000838152602001908152602001600020905080600401544210610697576040517f08c379a000000000000000000000000000000000000000000000000000000000815260040161068e906116c0565b60405180910390fd5b8060050160009054906101000a900460ff166106e8576040517f08c379a00000000000000000000000000000000000000000000000000000000081526004016106df9061172c565b60405180910390fd5b60006064600654856106fa919061177b565b61070491906117ec565b905060008185610714919061181d565b9050600560009054906101000a900473ffffffffffffffffffffffffffffffffffffffff1673ffffffffffffffffffffffffffffffffffffffff166323b872dd3330886040518463ffffffff1660e01b815260040161077593929190611851565b6020604051808303816000875af1158015610794573d6000803e3d6000fd5b505050506040513d601f19601f820116820180604052508101906107b89190611592565b6107f7576040517f08c379a00000000000000000000000000000000000000000000000000000000081526004016107ee906118d4565b60405180910390fd5b8083600301600082825461080b91906118f4565b92505081905550816007600082825461082491906118f4565b92505081905550837f0a4a91237423e0a1766a761c7cb029311d8b95d6b1b81db1b949a70c98b4e08e338760405161085d92919061153d565b60405180910390a282600201548360030154106109885760008360050160006101000a81548160ff021916908315150217905550600560009054906101000a900473ffffffffffffffffffffffffffffffffffffffff1673ffffffffffffffffffffffffffffffffffffffff1663a9059cbb8460000160009054906101000a900473ffffffffffffffffffffffffffffffffffffffff1685600301546040518363ffffffff1660e01b8152600401610916929190611949565b6020604051808303816000875af1158015610935573d6000803e3d6000fd5b505050506040513d601f19601f820116820180604052508101906109599190611592565b50837ff2460a88147f5180b9df3609a3c66dda39614029da9fdf0b90564b7154374d2f60405160405180910390a25b50505050610994610ddf565b505050565b600084116109dc576040517f08c379a00000000000000000000000000000000000000000000000000000000081526004016109d3906119be565b60405180910390fd5b6000600387876040516109f09291906115ef565b908152602001604051809103902054148015610a0e57506000600454145b80610a3b575060045460038787604051610a299291906115ef565b90815260200160405180910390205414155b610a7a576040517f08c379a0000000000000000000000000000000000000000000000000000000008152600401610a7190611a50565b60405180910390fd5b6000603c82610a89919061177b565b610e1084610a97919061177b565b6201518086610aa6919061177b565b42610ab191906118f4565b610abb91906118f4565b610ac591906118f4565b90506040518060c001604052803373ffffffffffffffffffffffffffffffffffffffff16815260200188888080601f016020809104026020016040519081016040528093929190818152602001838380828437600081840152601f19601f820116905080830192505050505050508152602001868152602001600081526020018281526020016001151581525060026000600454815260200190815260200160002060008201518160000160006101000a81548173ffffffffffffffffffffffffffffffffffffffff021916908373ffffffffffffffffffffffffffffffffffffffff1602179055506020820151816001019081610bc39190611c12565b5060408201518160020155606082015181600301556080820151816004015560a08201518160050160006101000a81548160ff02191690831515021790555090505060045460038888604051610c1a9291906115ef565b9081526020016040518091039020819055506004547f2e4be7f0a0275b06869815699165e220352ac35bdea8c927565a098fa77dffb68888338986604051610c66959493929190611d11565b60405180910390a260046000815480929190610c8190611d5f565b919050555050505050505050565b610c97610d12565b600073ffffffffffffffffffffffffffffffffffffffff168173ffffffffffffffffffffffffffffffffffffffff1603610d06576040517f08c379a0000000000000000000000000000000000000000000000000000000008152600401610cfd90611e19565b60405180910390fd5b610d0f81610de8565b50565b610d1a610eac565b73ffffffffffffffffffffffffffffffffffffffff16610d3861058d565b73ffffffffffffffffffffffffffffffffffffffff1614610d8e576040517f08c379a0000000000000000000000000000000000000000000000000000000008152600401610d8590611e85565b60405180910390fd5b565b600260015403610dd5576040517f08c379a0000000000000000000000000000000000000000000000000000000008152600401610dcc90611ef1565b60405180910390fd5b6002600181905550565b60018081905550565b60008060009054906101000a900473ffffffffffffffffffffffffffffffffffffffff169050816000806101000a81548173ffffffffffffffffffffffffffffffffffffffff021916908373ffffffffffffffffffffffffffffffffffffffff1602179055508173ffffffffffffffffffffffffffffffffffffffff168173ffffffffffffffffffffffffffffffffffffffff167f8be0079c531659141344cd1fd0a4f28419497f9722a3daafe3b4186f6b6457e060405160405180910390a35050565b600033905090565b6000819050919050565b610ec781610eb4565b82525050565b6000602082019050610ee26000830184610ebe565b92915050565b6000604051905090565b600080fd5b600080fd5b610f0581610eb4565b8114610f1057600080fd5b50565b600081359050610f2281610efc565b92915050565b600060208284031215610f3e57610f3d610ef2565b5b6000610f4c84828501610f13565b91505092915050565b600073ffffffffffffffffffffffffffffffffffffffff82169050919050565b6000610f8082610f55565b9050919050565b610f9081610f75565b82525050565b600081519050919050565b600082825260208201905092915050565b60005b83811015610fd0578082015181840152602081019050610fb5565b60008484015250505050565b6000601f19601f8301169050919050565b6000610ff882610f96565b6110028185610fa1565b9350611012818560208601610fb2565b61101b81610fdc565b840191505092915050565b60008115159050919050565b61103b81611026565b82525050565b600060c0820190506110566000830189610f87565b81810360208301526110688188610fed565b90506110776040830187610ebe565b6110846060830186610ebe565b6110916080830185610ebe565b61109e60a0830184611032565b979650505050505050565b600080fd5b600080fd5b7f4e487b7100000000000000000000000000000000000000000000000000000000600052604160045260246000fd5b6110eb82610fdc565b810181811067ffffffffffffffff8211171561110a576111096110b3565b5b80604052505050565b600061111d610ee8565b905061112982826110e2565b919050565b600067ffffffffffffffff821115611149576111486110b3565b5b61115282610fdc565b9050602081019050919050565b82818337600083830152505050565b600061118161117c8461112e565b611113565b90508281526020810184848401111561119d5761119c6110ae565b5b6111a884828561115f565b509392505050565b600082601f8301126111c5576111c46110a9565b5b81356111d584826020860161116e565b91505092915050565b6000602082840312156111f4576111f3610ef2565b5b600082013567ffffffffffffffff81111561121257611211610ef7565b5b61121e848285016111b0565b91505092915050565b600080fd5b600080fd5b60008083601f840112611247576112466110a9565b5b8235905067ffffffffffffffff81111561126457611263611227565b5b6020830191508360018202830111156112805761127f61122c565b5b9250929050565b6000806020838503121561129e5761129d610ef2565b5b600083013567ffffffffffffffff8111156112bc576112bb610ef7565b5b6112c885828601611231565b92509250509250929050565b60006112df82610f55565b9050919050565b6112ef816112d4565b82525050565b600060208201905061130a60008301846112e6565b92915050565b6000819050919050565b600061133561133061132b84610f55565b611310565b610f55565b9050919050565b60006113478261131a565b9050919050565b60006113598261133c565b9050919050565b6113698161134e565b82525050565b60006020820190506113846000830184611360565b92915050565b6000806000604084860312156113a3576113a2610ef2565b5b600084013567ffffffffffffffff8111156113c1576113c0610ef7565b5b6113cd86828701611231565b935093505060206113e086828701610f13565b9150509250925092565b60008060008060008060a0878903121561140757611406610ef2565b5b600087013567ffffffffffffffff81111561142557611424610ef7565b5b61143189828a01611231565b9650965050602061144489828a01610f13565b945050604061145589828a01610f13565b935050606061146689828a01610f13565b925050608061147789828a01610f13565b9150509295509295509295565b61148d816112d4565b811461149857600080fd5b50565b6000813590506114aa81611484565b92915050565b6000602082840312156114c6576114c5610ef2565b5b60006114d48482850161149b565b91505092915050565b7f4e487b7100000000000000000000000000000000000000000000000000000000600052602260045260246000fd5b6000600282049050600182168061152457607f821691505b602082108103611537576115366114dd565b5b50919050565b600060408201905061155260008301856112e6565b61155f6020830184610ebe565b9392505050565b61156f81611026565b811461157a57600080fd5b50565b60008151905061158c81611566565b92915050565b6000602082840312156115a8576115a7610ef2565b5b60006115b68482850161157d565b91505092915050565b600081905092915050565b60006115d683856115bf565b93506115e383858461115f565b82840190509392505050565b60006115fc8284866115ca565b91508190509392505050565b7f43616d706169676e206973207374696c6c206f6e676f696e6700000000000000600082015250565b600061163e601983610fa1565b915061164982611608565b602082019050919050565b6000602082019050818103600083015261166d81611631565b9050919050565b7f43616d706169676e2068617320656e6465640000000000000000000000000000600082015250565b60006116aa601283610fa1565b91506116b582611674565b602082019050919050565b600060208201905081810360008301526116d98161169d565b9050919050565b7f43616d706169676e206973206e6f206c6f6e6765722061637469766500000000600082015250565b6000611716601c83610fa1565b9150611721826116e0565b602082019050919050565b6000602082019050818103600083015261174581611709565b9050919050565b7f4e487b7100000000000000000000000000000000000000000000000000000000600052601160045260246000fd5b600061178682610eb4565b915061179183610eb4565b925082820261179f81610eb4565b915082820484148315176117b6576117b561174c565b5b5092915050565b7f4e487b7100000000000000000000000000000000000000000000000000000000600052601260045260246000fd5b60006117f782610eb4565b915061180283610eb4565b925082611812576118116117bd565b5b828204905092915050565b600061182882610eb4565b915061183383610eb4565b925082820390508181111561184b5761184a61174c565b5b92915050565b600060608201905061186660008301866112e6565b61187360208301856112e6565b6118806040830184610ebe565b949350505050565b7f5472616e73666572206661696c65640000000000000000000000000000000000600082015250565b60006118be600f83610fa1565b91506118c982611888565b602082019050919050565b600060208201905081810360008301526118ed816118b1565b9050919050565b60006118ff82610eb4565b915061190a83610eb4565b92508282019050808211156119225761192161174c565b5b92915050565b60006119338261133c565b9050919050565b61194381611928565b82525050565b600060408201905061195e600083018561193a565b61196b6020830184610ebe565b9392505050565b7f476f616c206d7573742062652067726561746572207468616e207a65726f0000600082015250565b60006119a8601e83610fa1565b91506119b382611972565b602082019050919050565b600060208201905081810360008301526119d78161199b565b9050919050565b7f43616d706169676e20776974682074686973206e616d6520616c72656164792060008201527f6578697374730000000000000000000000000000000000000000000000000000602082015250565b6000611a3a602683610fa1565b9150611a45826119de565b604082019050919050565b60006020820190508181036000830152611a6981611a2d565b9050919050565b60008190508160005260206000209050919050565b60006020601f8301049050919050565b600082821b905092915050565b600060088302611ad27fffffffffffffffffffffffffffffffffffffffffffffffffffffffffffffffff82611a95565b611adc8683611a95565b95508019841693508086168417925050509392505050565b6000611b0f611b0a611b0584610eb4565b611310565b610eb4565b9050919050565b6000819050919050565b611b2983611af4565b611b3d611b3582611b16565b848454611aa2565b825550505050565b600090565b611b52611b45565b611b5d818484611b20565b505050565b5b81811015611b8157611b76600082611b4a565b600181019050611b63565b5050565b601f821115611bc657611b9781611a70565b611ba084611a85565b81016020851015611baf578190505b611bc3611bbb85611a85565b830182611b62565b50505b505050565b600082821c905092915050565b6000611be960001984600802611bcb565b1980831691505092915050565b6000611c028383611bd8565b9150826002028217905092915050565b611c1b82610f96565b67ffffffffffffffff811115611c3457611c336110b3565b5b611c3e825461150c565b611c49828285611b85565b600060209050601f831160018114611c7c5760008415611c6a578287015190505b611c748582611bf6565b865550611cdc565b601f198416611c8a86611a70565b60005b82811015611cb257848901518255600182019150602085019450602081019050611c8d565b86831015611ccf5784890151611ccb601f891682611bd8565b8355505b6001600288020188555050505b505050505050565b6000611cf08385610fa1565b9350611cfd83858461115f565b611d0683610fdc565b840190509392505050565b60006080820190508181036000830152611d2c818789611ce4565b9050611d3b60208301866112e6565b611d486040830185610ebe565b611d556060830184610ebe565b9695505050505050565b6000611d6a82610eb4565b91507fffffffffffffffffffffffffffffffffffffffffffffffffffffffffffffffff8203611d9c57611d9b61174c565b5b600182019050919050565b7f4f776e61626c653a206e6577206f776e657220697320746865207a65726f206160008201527f6464726573730000000000000000000000000000000000000000000000000000602082015250565b6000611e03602683610fa1565b9150611e0e82611da7565b604082019050919050565b60006020820190508181036000830152611e3281611df6565b9050919050565b7f4f776e61626c653a2063616c6c6572206973206e6f7420746865206f776e6572600082015250565b6000611e6f602083610fa1565b9150611e7a82611e39565b602082019050919050565b60006020820190508181036000830152611e9e81611e62565b9050919050565b7f5265656e7472616e637947756172643a207265656e7472616e742063616c6c00600082015250565b6000611edb601f83610fa1565b9150611ee682611ea5565b602082019050919050565b60006020820190508181036000830152611f0a81611ece565b905091905056fea2646970667358221220a89137cfd47522efe04d7a913d5b82a2008f1310da3d81a57dcc49c2d374a2e464736f6c63430008180033",
  "linkReferences": {},
  "deployedLinkReferences": {}
}