{
  "_format": "hh-sol-artifact-1",
  "contractName": "CrowdfundingCampaign",
  "sourceName": "contracts/CrowdfundingCampaign.sol",
  "abi": [
    {
      "inputs": [
        {
          "internalType": "uint256",
          "name": "_goalAmount",
          "type": "uint256"
        },
        {
          "internalType": "uint256",
          "name": "_duration",
          "type": "uint256"
        }
      ],
      "stateMutability": "nonpayable",
      "type": "constructor"
    },
    {
      "anonymous": false,
      "inputs": [
        {
          "indexed": true,
          "internalType": "address",
          "name": "contributor",
          "type": "address"
        },
        {
          "indexed": false,
          "internalType": "uint256",
          "name": "amount",
          "type": "uint256"
        }
      ],
      "name": "ContributionMade",
      "type": "event"
    },
    {
      "anonymous": false,
      "inputs": [
        {
          "indexed": true,
          "internalType": "address",
          "name": "owner",
          "type": "address"
        },
        {
          "indexed": false,
          "internalType": "uint256",
          "name": "amount",
          "type": "uint256"
        }
      ],
      "name": "FundsWithdrawn",
      "type": "event"
    },
    {
      "anonymous": false,
      "inputs": [
        {
          "indexed": true,
          "internalType": "address",
          "name": "contributor",
          "type": "address"
        },
        {
          "indexed": false,
          "internalType": "uint256",
          "name": "amount",
          "type": "uint256"
        }
      ],
      "name": "RefundIssued",
      "type": "event"
    },
    {
      "inputs": [],
      "name": "campaignOwner",
      "outputs": [
        {
          "internalType": "address",
          "name": "",
          "type": "address"
        }
      ],
      "stateMutability": "view",
      "type": "function"
    },
    {
      "inputs": [],
      "name": "checkGoalReached",
      "outputs": [
        {
          "internalType": "bool",
          "name": "",
          "type": "bool"
        }
      ],
      "stateMutability": "view",
      "type": "function"
    },
    {
      "inputs": [],
      "name": "contribute",
      "outputs": [],
      "stateMutability": "payable",
      "type": "function"
    },
    {
      "inputs": [
        {
          "internalType": "address",
          "name": "",
          "type": "address"
        }
      ],
      "name": "contributions",
      "outputs": [
        {
          "internalType": "uint256",
          "name": "",
          "type": "uint256"
        }
      ],
      "stateMutability": "view",
      "type": "function"
    },
    {
      "inputs": [],
      "name": "deadline",
      "outputs": [
        {
          "internalType": "uint256",
          "name": "",
          "type": "uint256"
        }
      ],
      "stateMutability": "view",
      "type": "function"
    },
    {
      "inputs": [],
      "name": "goalAmount",
      "outputs": [
        {
          "internalType": "uint256",
          "name": "",
          "type": "uint256"
        }
      ],
      "stateMutability": "view",
      "type": "function"
    },
    {
      "inputs": [],
      "name": "refund",
      "outputs": [],
      "stateMutability": "nonpayable",
      "type": "function"
    },
    {
      "inputs": [],
      "name": "totalContributed",
      "outputs": [
        {
          "internalType": "uint256",
          "name": "",
          "type": "uint256"
        }
      ],
      "stateMutability": "view",
      "type": "function"
    },
    {
      "inputs": [],
      "name": "withdrawFunds",
      "outputs": [],
      "stateMutability": "nonpayable",
      "type": "function"
    }
  ],
  "bytecode": "0x60806040523480156200001157600080fd5b50604051620011d9380380620011d983398181016040528101906200003791906200016f565b60016000819055506000821162000085576040517f08c379a00000000000000000000000000000000000000000000000000000000081526004016200007c906200023d565b60405180910390fd5b60008111620000cb576040517f08c379a0000000000000000000000000000000000000000000000000000000008152600401620000c290620002d5565b60405180910390fd5b33600160006101000a81548173ffffffffffffffffffffffffffffffffffffffff021916908373ffffffffffffffffffffffffffffffffffffffff16021790555081600281905550804262000121919062000326565b600481905550505062000361565b600080fd5b6000819050919050565b620001498162000134565b81146200015557600080fd5b50565b60008151905062000169816200013e565b92915050565b600080604083850312156200018957620001886200012f565b5b6000620001998582860162000158565b9250506020620001ac8582860162000158565b9150509250929050565b600082825260208201905092915050565b7f476f616c20616d6f756e74206d7573742062652067726561746572207468616e60008201527f207a65726f000000000000000000000000000000000000000000000000000000602082015250565b600062000225602583620001b6565b91506200023282620001c7565b604082019050919050565b60006020820190508181036000830152620002588162000216565b9050919050565b7f4475726174696f6e206d7573742062652067726561746572207468616e207a6560008201527f726f000000000000000000000000000000000000000000000000000000000000602082015250565b6000620002bd602283620001b6565b9150620002ca826200025f565b604082019050919050565b60006020820190508181036000830152620002f081620002ae565b9050919050565b7f4e487b7100000000000000000000000000000000000000000000000000000000600052601160045260246000fd5b6000620003338262000134565b9150620003408362000134565b92508282019050808211156200035b576200035a620002f7565b5b92915050565b610e6880620003716000396000f3fe6080604052600436106100865760003560e01c806329dcb0cf1161005957806329dcb0cf1461012357806342e94c901461014e578063590e1ae31461018b578063b17fac22146101a2578063d7bb99ba146101cd57610086565b806301cb3b201461008b578063023f4147146100b657806324600fc3146100e15780632636b945146100f8575b600080fd5b34801561009757600080fd5b506100a06101d7565b6040516100ad9190610851565b60405180910390f35b3480156100c257600080fd5b506100cb6101e6565b6040516100d89190610885565b60405180910390f35b3480156100ed57600080fd5b506100f66101ec565b005b34801561010457600080fd5b5061010d61043c565b60405161011a9190610885565b60405180910390f35b34801561012f57600080fd5b50610138610442565b6040516101459190610885565b60405180910390f35b34801561015a57600080fd5b5061017560048036038101906101709190610903565b610448565b6040516101829190610885565b60405180910390f35b34801561019757600080fd5b506101a0610460565b005b3480156101ae57600080fd5b506101b7610661565b6040516101c4919061093f565b60405180910390f35b6101d5610687565b005b60006002546003541015905090565b60035481565b6101f46107dd565b600160009054906101000a900473ffffffffffffffffffffffffffffffffffffffff1673ffffffffffffffffffffffffffffffffffffffff163373ffffffffffffffffffffffffffffffffffffffff1614610284576040517f08c379a000000000000000000000000000000000000000000000000000000000815260040161027b906109dd565b60405180910390fd5b6004544210156102c9576040517f08c379a00000000000000000000000000000000000000000000000000000000081526004016102c090610a49565b60405180910390fd5b6102d16101d7565b610310576040517f08c379a000000000000000000000000000000000000000000000000000000000815260040161030790610ab5565b60405180910390fd5b600047905060008111610358576040517f08c379a000000000000000000000000000000000000000000000000000000000815260040161034f90610b21565b60405180910390fd5b600160009054906101000a900473ffffffffffffffffffffffffffffffffffffffff1673ffffffffffffffffffffffffffffffffffffffff166108fc829081150290604051600060405180830381858888f193505050501580156103c0573d6000803e3d6000fd5b50600160009054906101000a900473ffffffffffffffffffffffffffffffffffffffff1673ffffffffffffffffffffffffffffffffffffffff167feaff4b37086828766ad3268786972c0cd24259d4c87a80f9d3963a3c3d999b0d826040516104299190610885565b60405180910390a25061043a61082c565b565b60025481565b60045481565b60056020528060005260406000206000915090505481565b6104686107dd565b6004544210156104ad576040517f08c379a00000000000000000000000000000000000000000000000000000000081526004016104a490610a49565b60405180910390fd5b6104b56101d7565b156104f5576040517f08c379a00000000000000000000000000000000000000000000000000000000081526004016104ec90610bb3565b60405180910390fd5b6000600560003373ffffffffffffffffffffffffffffffffffffffff1673ffffffffffffffffffffffffffffffffffffffff1681526020019081526020016000205490506000811161057c576040517f08c379a000000000000000000000000000000000000000000000000000000000815260040161057390610c45565b60405180910390fd5b6000600560003373ffffffffffffffffffffffffffffffffffffffff1673ffffffffffffffffffffffffffffffffffffffff168152602001908152602001600020819055503373ffffffffffffffffffffffffffffffffffffffff166108fc829081150290604051600060405180830381858888f19350505050158015610607573d6000803e3d6000fd5b503373ffffffffffffffffffffffffffffffffffffffff167fa171b6942063c6f2800ce40a780edce37baa2b618571b11eedd1e69e626e7d768260405161064e9190610885565b60405180910390a25061065f61082c565b565b600160009054906101000a900473ffffffffffffffffffffffffffffffffffffffff1681565b61068f6107dd565b60045442106106d3576040517f08c379a00000000000000000000000000000000000000000000000000000000081526004016106ca90610cb1565b60405180910390fd5b60003411610716576040517f08c379a000000000000000000000000000000000000000000000000000000000815260040161070d90610d43565b60405180910390fd5b34600560003373ffffffffffffffffffffffffffffffffffffffff1673ffffffffffffffffffffffffffffffffffffffff16815260200190815260200160002060008282546107659190610d92565b92505081905550346003600082825461077e9190610d92565b925050819055503373ffffffffffffffffffffffffffffffffffffffff167f6770260ea820d2f539364e7617e021543aaf6d192f2fd2a47c20db6bd99a4eb9346040516107cb9190610885565b60405180910390a26107db61082c565b565b600260005403610822576040517f08c379a000000000000000000000000000000000000000000000000000000000815260040161081990610e12565b60405180910390fd5b6002600081905550565b6001600081905550565b60008115159050919050565b61084b81610836565b82525050565b60006020820190506108666000830184610842565b92915050565b6000819050919050565b61087f8161086c565b82525050565b600060208201905061089a6000830184610876565b92915050565b600080fd5b600073ffffffffffffffffffffffffffffffffffffffff82169050919050565b60006108d0826108a5565b9050919050565b6108e0816108c5565b81146108eb57600080fd5b50565b6000813590506108fd816108d7565b92915050565b600060208284031215610919576109186108a0565b5b6000610927848285016108ee565b91505092915050565b610939816108c5565b82525050565b60006020820190506109546000830184610930565b92915050565b600082825260208201905092915050565b7f4f6e6c79207468652063616d706169676e206f776e65722063616e207769746860008201527f647261772066756e647300000000000000000000000000000000000000000000602082015250565b60006109c7602a8361095a565b91506109d28261096b565b604082019050919050565b600060208201905081810360008301526109f6816109ba565b9050919050565b7f43616d706169676e206973207374696c6c206163746976650000000000000000600082015250565b6000610a3360188361095a565b9150610a3e826109fd565b602082019050919050565b60006020820190508181036000830152610a6281610a26565b9050919050565b7f476f616c206e6f74207265616368656400000000000000000000000000000000600082015250565b6000610a9f60108361095a565b9150610aaa82610a69565b602082019050919050565b60006020820190508181036000830152610ace81610a92565b9050919050565b7f4e6f2066756e647320746f207769746864726177000000000000000000000000600082015250565b6000610b0b60148361095a565b9150610b1682610ad5565b602082019050919050565b60006020820190508181036000830152610b3a81610afe565b9050919050565b7f476f616c2077617320726561636865642c20726566756e647320617265206e6f60008201527f7420706f737369626c6500000000000000000000000000000000000000000000602082015250565b6000610b9d602a8361095a565b9150610ba882610b41565b604082019050919050565b60006020820190508181036000830152610bcc81610b90565b9050919050565b7f4e6f20636f6e747269627574696f6e7320666f756e6420666f7220746869732060008201527f6164647265737300000000000000000000000000000000000000000000000000602082015250565b6000610c2f60278361095a565b9150610c3a82610bd3565b604082019050919050565b60006020820190508181036000830152610c5e81610c22565b9050919050565b7f43616d706169676e2068617320656e6465640000000000000000000000000000600082015250565b6000610c9b60128361095a565b9150610ca682610c65565b602082019050919050565b60006020820190508181036000830152610cca81610c8e565b9050919050565b7f436f6e747269627574696f6e206d75737420626520677265617465722074686160008201527f6e207a65726f0000000000000000000000000000000000000000000000000000602082015250565b6000610d2d60268361095a565b9150610d3882610cd1565b604082019050919050565b60006020820190508181036000830152610d5c81610d20565b9050919050565b7f4e487b7100000000000000000000000000000000000000000000000000000000600052601160045260246000fd5b6000610d9d8261086c565b9150610da88361086c565b9250828201905080821115610dc057610dbf610d63565b5b92915050565b7f5265656e7472616e637947756172643a207265656e7472616e742063616c6c00600082015250565b6000610dfc601f8361095a565b9150610e0782610dc6565b602082019050919050565b60006020820190508181036000830152610e2b81610def565b905091905056fea26469706673582212204f88e3429225984cc13aae822eaa97bbad8a7758e9235937a3ef1aa138814a6764736f6c63430008180033",
  "linkReferences": {},
  "deployedLinkReferences": {}
}